:020000040800F2
:1000000050070020450100085B1200084D0E000853
:1000100059120008D50100087D15000800000000F5
:100020000000000000000000000000005F12000857
:10003000D7010008000000005D12000861120008EE
:100040005F0100085F0100085F0100085F01000810
:100050005F0100085F0100085F0100085F01000800
:100060005F0100085F010008D90100085F01000876
:100070005F0100085F0100085F0100085F010008E0
:100080005F0100085F0100085F0100085F010008D0
:100090005F0100085F0100085F0100085F010008C0
:1000A0005F0100085F0100085F0100085F010008B0
:1000B0005F0100085F0100085F0100085F010008A0
:1000C0005F0100085F0100085F0100085F01000890
:1000D0005F0100085F0100085F0100085F01000880
:1000E0005F0100085F0100085F0100085F01000870
:1000F0005F0100085F0100085F0100085F01000860
:100100005F0100085F0100085F0100085F0100084F
:100110005F0100085F0100085F0100085F0100083F
:100120005F0100085F0100085F0100085F0100082F
:10013000DFF80CD000F03CF80048004761210008CF
:10014000500700200648804706480047FEE7FEE7C4
:10015000FEE7FEE7FEE7FEE7FEE7FEE7FEE7FEE777
:10016000B31200083101000840EA01039B0703D0E5
:1001700009E008C9121F08C0042AFAD203E011F8E6
:10018000013B00F8013B521EF9D27047D2B201E0A8
:1001900000F8012B491EFBD270470022F6E710B58C
:1001A00013460A4604461946FFF7F0FF204610BDE5
:1001B000064C074D06E0E06840F0010394E80700B4
:1001C00098471034AC42F6D3FFF7B6FF9C210008E5
:1001D000BC210008FEE7704710B50749074801F049
:1001E0003EFA462000F010F80021044801F0C7F95B
:1001F00003492020086010BD340300207001002056
:10020000140401407047000070B5044600F010F976
:100210000546601C02D004480078044400F008F948
:10022000401BA042FAD370BD000000202DE9F84F1A
:10023000DFF8C891002409F1040A0AF1040B2346EF
:100240000F270BF1040ED1E00125A54006EA0502B7
:10025000AA4276D1DFF8A8C14E68A6EB0C08664525
:100260002BD00DDC032E34D005DC36B3012E19D093
:10027000022E2FD11BE0112E16D0122E2AD119E0FA
:10028000B8F5881F19D006DCB8F5803F15D0B8F551
:10029000801F1FD111E0B8F5001F0ED0B8F5041F64
:1002A00018D10AE0CB6815E0CB681B1D12E0CB68C3
:1002B00008330FE0CB680C330CE08B682BB1012BBB
:1002C0004FF0080303D0456104E0042302E0056118
:1002D00000E00023FF2A01D8064601E000F10406F1
:1002E0004FEA840501D9A5F12005D6F8008007FA68
:1002F00005FC28EA0C0803FA05F548EA0508C6F8E3
:1003000000804D68ED0070D53E4DAE6946F00106A7
:10031000AE61AD6924F0030605F0010500953A4D84
:1003200006EB050CDCF80850A607360F07FA06F8AE
:1003300025EA0805DFF8D480404503D14FF00008D6
:1003400025E052E0DFF8C880404502D14FF00108B7
:100350001DE0DFF8C080404502D14FF0020816E0F2
:10036000DFF8B480404502D14FF003080FE0DFF81A
:10037000AC80404502D14FF0040808E0DFF8A080CF
:10038000404502D14FF0050801E04FF0060808FA99
:1003900006F848EA0508CCF808804D68D9F80060EE
:1003A000ED034D4601D5164300E096432E604D689F
:1003B000DAF80060AD03554601D5164300E09643D8
:1003C0002E604D68DBF80060ED025D4601D51643F6
:1003D00000E096432E604D68DEF80060AD02754681
:1003E00001D5164300E096432E60641C0A68164649
:1003F000E2407FF429AFBDE8F88F0000000401401F
:1004000000001110001002400000014000080140EF
:10041000000C014000100140001401400018014090
:10042000001C01400AB1016170470904FBE70000AC
:100430000148806870470000000000200248816881
:10044000027811448160704700000020074810B511
:10045000016841F010010160032000F067F80020FE
:1004600000F006F800F024F8002010BD0020024043
:1004700070B50D4D04464FF47A712878B1FBF0F059
:100480000A490968B1FBF0F000F0DEFA48B9102C17
:1004900007D200222146501E00F028F800206C6090
:1004A00070BD012070BD0000000000200C00002085
:1004B0000C4808B5816941F001018161816901F051
:1004C00001010091C16941F08051C161C06900F032
:1004D000805000900448416821F0E06141F00071D3
:1004E000416008BD0010024000000140F0B40E4B16
:1004F0001B680C46C3F30223C3F10705042D00D982
:100500000425191D072901D2002300E0DB1E012666
:1005100006FA05F1491E214099409E40761E16407C
:100520003143F0BC01F0E5BD0CED00E0064900F000
:10053000070208684FF6FF03184040EA0220034A0A
:1005400010430860704700000CED00E00000FA0561
:100550002DE9F0470F46050061D0434E306800F0AA
:100560000700B84209D2306820F0070038433060F5
:10057000306800F00700B84251D128683B4C810731
:1005800012D5400703D5606840F4E06060602878C9
:10059000000703D5606840F4605060606068A96837
:1005A00020F0F000084360602878C00728D0686811
:1005B000012810D02168022810D0890700292EDADE
:1005C000616821F0030101436160FFF731FF80465C
:1005D00041F288390DE021688903EFE78901EDE7F1
:1005E000FFF726FFA0EB0801494502D90320BDE82B
:1005F000F0876068696800F00C00B0EB810FEFD104
:10060000306800F00700B8420BD9306820F00700CE
:1006100038433060306800F00700B84201D0012054
:10062000E5E72878400705D56068E96820F4E060D0
:10063000084360602878000706D56068296920F4BF
:10064000605040EAC100606000F038F86168084A14
:10065000C1F30311515CC8400649086006480068B0
:10066000FFF706FF0020C2E7002002400010024012
:10067000822100080C0000200400002004480549E5
:1006800000684968044AC1F30221515CC8407047C0
:100690000C00002000100240922100080448054987
:1006A00000684968044AC1F3C221515CC8407047E0
:1006B0000C000020001002409221000812A185B019
:1006C0000FC98DE80F0014A0144A00680490516807
:1006D000134801F00C03042B10D0082B0ED1C1F3EA
:1006E0008343C9031DF803000AD5516804AAC1F366
:1006F0004041515C0A4A5043B0FBF1F005B07047ED
:1007000008494843FAE70000020304050607080900
:100710000A0B0C0D0E0F1010010200000010024019
:1007200000127A0000093D002DE9F84F040070D056
:100730002078C04DC00749D06868C0F38100012807
:1007400007D06868C0F38100022809D16868C00337
:1007500006D52868800339D560680028E7D035E0E1
:100760006068B0F5803F0BD010B1B0F5A02F11D06C
:10077000286820F480302860286820F4802002E077
:10078000286840F480302860606890B1FFF750FE20
:1007900006460AE0286840F480202860F0E700BFA1
:1007A000FFF746FE801B642873D828688003F7D5BE
:1007B0000CE0FFF73DFE064605E000BFFFF738FE00
:1007C000801B6428F0D828688003F7D420789A4EDC
:1007D00080074FF001094FF0000839D5686810F024
:1007E0000C0F07D06868C0F38100022809D168683F
:1007F000C00306D42868800714D52069012808D1D1
:1008000010E02069B0B1C6F80090FFF711FE07466E
:1008100005E00AE1FFF70CFEC01B0228C4D82868D7
:100820008007F7D52868616920F0F80040EAC10028
:1008300028600DE0C6F80080FFF7FAFD074604E0E7
:10084000FFF7F6FDC01B022823D828688007F7D4DD
:10085000207800072CD57948A169D9B1C0F800905B
:10086000FFF7E6FD074604E0FFF7E2FDC01B0228A4
:100870000FD8686A8007F7D571484FF4FA510068BD
:10088000B0FBF1F0009000BF0098411E0091FAD239
:100890000EE080E0C0F80080FFF7CAFD074604E0E4
:1008A000FFF7C6FDC01B022875D8686A8007F7D419
:1008B0002078400760D5E8690027C00008D4E869BF
:1008C00040F08050E861E869012700F08050009016
:1008D0005C480168C90513D40168834641F48071FE
:1008E0000160FFF7A5FD824606E000BFFFF7A0FD0F
:1008F000A0EB0A0064284ED8DBF80000C005F5D54F
:10090000E06801280AD008B1052813D0286A20F031
:1009100001002862286A20F0040002E0286A40F002
:1009200001002862E06841F2883B98B1FFF780FD42
:1009300082460BE0286A40F004002862EEE700BF20
:10094000FFF776FDA0EB0A0159455AD8286A8007BF
:10095000F6D50CE0FFF76CFD824605E0FFF768FD79
:10096000A0EB0A0159454CD8286A8007F6D41FB17C
:10097000E86920F08050E861E06988B36968C1F3F4
:100980008101022944D00228C6F8608004D0FFF714
:100990004FFD044638E034E0FFF74AFD074604E027
:1009A000FFF746FDC01B02282BD828688001F7D42A
:1009B000206AB0F5803F05D16868A16820F4003056
:1009C00008436860D4E908010843696821F4741198
:1009D00008436860C6F86090FFF72AFD044606E009
:1009E00025E000BFFFF724FD001B022809D8286876
:1009F0008001F7D51BE000BFFFF71AFD001B02289E
:100A000002D90320BDE8F88F28688001F4D40EE0F5
:100A10000128F7D06868226A00F48031914204D13D
:100A2000616A00F47010884201D00120EAE70020DA
:100A3000E8E7000000100240000042428004424209
:100A40000C0000200070004010B5401EB0F1807F07
:100A500001D3012010BD4FF0E02460610F21601729
:100A600001F047FB0020A06107202061002010BD9D
:100A700070B590F83C20012A2CD0012480F83C402D
:100A8000022280F83D2003685A689D6822F07006B3
:100A90000A6832435A60104B02689A420ED00F4BDC
:100AA0009A420BD0B2F1804F08D00D4B9A4205D03C
:100AB0000C4B9A4202D00C4B9A4204D1496825F063
:100AC00080031943916080F83D40002180F83C107C
:100AD000084670BD022070BD002C0140003401406A
:100AE0000004004000080040000C004030B585B014
:100AF000002100910191029103910268324903247F
:100B000002253248B2F1804F24D0314B9A422DD188
:100B10008A6942F004028A618A6902F0040204923E
:100B20008A6942F008028A618969039401F0080128
:100B30000491C021CDE900156946FFF777FB01203C
:100B4000CDE9000523486946039400BFFFF76EFB1B
:100B500005B030BD8A6942F004028A618969CDE935
:100B6000004501F00401CDE903412AE01A4B9A4205
:100B700018D1886940F0200088618869694600F0D2
:100B8000200004904FF47040CDE900050394134811
:100B9000FFF74CFB1248416841F0E06141F480519D
:100BA0004160D5E70F4B9A42D2D18A6942F00402E4
:100BB0008A618969039401F0040104910C21CDE953
:100BC00000156946C2E7000000100240000801401D
:100BD00000040040000C01400008004000140140E7
:100BE00000000140000C004070B5044690F83C0045
:100BF0000D4601280AD0012084F83C0042B1042AA5
:100C000018D0082A2AD00C2A4DD139E0022070BD14
:100C1000206800F095FB2068816941F0080181613E
:100C20002068816921F004018161206881692A6955
:100C3000114311E0206800F0B3FB2068816941F4A2
:100C4000006181612068816921F48061816120688F
:100C500081692A6941EA0221816124E0206800F06B
:100C6000D5FB2068C16941F00801C1612068C169F4
:100C700021F00401C1612068C1692A69114311E0B2
:100C8000206800F0F7FB2068C16941F40061C16190
:100C90002068C16921F48061C1612068C1692A6945
:100CA00041EA0221C161002084F83C0070BD10B50A
:100CB000040003D094F83D0010B107E0012010BDFE
:100CC000002084F83C00204600F01EF8022084F842
:100CD0003D00211D206800F0EDFA012084F8460057
:100CE00084F83E0084F83F0084F8400084F8410016
:100CF00084F8420084F8430084F8440084F84500F6
:100D000084F83D00002010BD08B501681648B1F117
:100D1000804F0BD0154A914210D1C16941F00201B8
:100D2000C161C06900F00200009008BDC16941F0D6
:100D30000101C161C06900F00100F5E70C4A914270
:100D400007D1C16941F00401C161C06900F004002C
:100D5000EAE7084A9142E8D1C16941F00801C1615E
:100D6000C06900F00800DFE7001002400004004006
:100D700000080040000C004070B5040004D094F856
:100D80003900002510B106E0012070BD84F838500C
:100D9000204600F023F8242084F839002068C16838
:100DA00021F40051C160204600F08CFB20680169ED
:100DB00021F4904101612068416921F02A014161DB
:100DC0002068C16841F40051C160E563202084F8C7
:100DD000390084F83A00002070BD000030B585B0BD
:100DE00000240094019402940394006814498842FA
:100DF00024D11448816941F480418161816901F401
:100E000080410491816941F00401816180690E4D46
:100E100000F0040004904FF4007000900220019054
:100E20000320039069462846FFF700FA2815CDE90C
:100E30000004694628460294FFF7F8F905B030BD72
:100E4000003801400010024000080140FEE70000A9
:100E50002DE9F04F85B000265B480096019602967A
:100E60000396816941F080018161816901F080010F
:100E70000491816941F004018161816901F00401FB
:100E80000491816941F008018161816901F00801E3
:100E90000491816941F040018161816901F0400163
:100EA0000491816941F020018161816901F0200193
:100EB0000491816941F010018161816901F01001A3
:100EC0000491816941F4807181618069DFF8FCB02F
:100ED00000F48070049000221E215846FFF7A2FA09
:100EE0004FF46058002241463948FFF79BFA4FF40F
:100EF000E059002249463748FFF794FA0022FF21C3
:100F00003548FFF78FFA4FF45C4A002251463348C8
:100F1000FFF788FA002208213148FFF783FA0122FF
:100F200020212F48FFF77EFA1E20012402250327E7
:100F30008DE8B10069465846FFF778F901AACDF867
:100F4000008082E8B00069462148FFF76FF9A003EE
:100F5000CDE90006694602951D48FFF767F901AA29
:100F6000CDF8009082E8B00069461A48FFF75EF9B4
:100F7000FF208DE8B10069461748FFF757F94FF495
:100F80000850CDE90006694602941448FFF74EF96F
:100F900001AACDF800A082E8B00069460F48FFF72B
:100FA00045F928208DE8B10069460D48FFF73EF964
:100FB0001020CDE90006694602940948FFF736F98A
:100FC00005B0BDE8F08F000000100240001C014099
:100FD00000180140001001400014014000200140B1
:100FE000000C014010B58AB0002407941C2168460B
:100FF0000894FFF7D2F81B484FF080410160472169
:10100000C0E9011444F61F61C0E903148461FFF7CD
:101010004EFE08B1FFF7F6F8079407A911480894A7
:10102000FFF726FD08B1FFF7EDF8602000904FF4C0
:101030007A70CDE90104002269460A480494FFF75A
:10104000D3FD08B1FFF7DEF8042269460548FFF733
:10105000CBFD08B1FFF7D6F80248FFF747FD0AB00D
:1010600010BD00001000002010B58AB000240794C5
:101070001C2168460894FFF790F81F481D4901603D
:101080004721C0E9011444F61F61C0E903148461DB
:10109000FFF70DFE08B1FFF7B5F8079407A916484A
:1010A0000894FFF7E5FC08B1FFF7ACF8602000906A
:1010B0004FF47A70CDE90104002269460E48049489
:1010C000FFF792FD08B1FFF79DF8042269460A4830
:1010D000FFF78AFD08B1FFF795F808226946064830
:1010E000FFF782FD08B1FFF78DF80348FFF7FEFC1C
:1010F0000AB010BD000400405800002010B58AB0AE
:10110000002407941C2168460894FFF746F82348FA
:10111000214901604721C0E9011441F28731C0E94A
:1011200003148461FFF7C3FD08B1FFF76BF8079460
:1011300007A91A480894FFF79BFC08B1FFF762F86B
:101140006020009040F6B830CDE9010400226946E5
:1011500012480494FFF748FD08B1FFF753F8042242
:1011600069460E48FFF740FD08B1FFF74BF808222B
:1011700069460A48FFF738FD08B1FFF743F80C222B
:1011800069460648FFF730FD08B1FFF73BF8034812
:10119000FFF7ACFC0AB010BD00080040A000002022
:1011A00010B58AB0002407941C2168460894FEF705
:1011B000F4FF1A48184901604721C0E901140921C8
:1011C000C0E903148461FFF772FD08B1FFF71AF854
:1011D000079407A911480894FFF74AFC08B1FFF7E4
:1011E00011F8602000900520CDE90104082269462D
:1011F0000A480494FFF7F8FC08B1FFF703F80C2243
:1012000069460648FFF7F0FC08B1FEF7FBFF03480C
:10121000FFF76CFC0AB010BD000C0040E800002095
:101220000C4810B50A4901604FF4E13141600021DA
:1012300081600C22C160C0E904128161C161FFF7C5
:101240009BFD002803D0BDE81040FEF7DBBF10BDBA
:101250000038014030010020FEE7704770477047BA
:10126000FFF7ECB830B58FB028216846FEF795FF40
:1012700014210AA8FEF791FF01210804CDE900100E
:101280000024029402250491CDE907504FF4E010A8
:1012900009906846FFF748FA0F20CDE90A05680271
:1012A000CDE90C4002210AA80E94FFF751F90FB0C6
:1012B00030BD7047F0B502681C4B1D4D1D4E1E4FD2
:1012C0001E4C4FF0804C984209D0A04207D0604598
:1012D00005D0A84203D0B04201D0B84204D122F0D8
:1012E000700E4A6842EA0E02984209D0A04207D026
:1012F000604505D0A84203D0B04201D0B84203D126
:1013000022F44075CA682A434D6922F080022A43BC
:1013100002608A68C2620A688262984201D0A04272
:1013200001D10969016301214161F0BD002C014037
:101330000004004000080040000C00400034014060
:10134000F0B5026A22F001020262036A426884690F
:10135000124E24F073050C682C4323F002058B68B1
:101360002B430D4DA84201D0B04205D123F0080710
:10137000CB683B4323F00403A84201D0B04205D11F
:101380004D6922F4407215438A692A4342608461A0
:10139000496841630362F0BD002C01400034014004
:1013A000F0B5026A22F010020262026A43688469A0
:1013B0000D6824F4E64444EA05248D6822F02002F6
:1013C00042EA05120F4D104EA84201D0B04206D19C
:1013D000CF6822F0800242EA071222F04002A842BF
:1013E00001D0B04207D14D6923F4406343EA85033D
:1013F0008D6943EA850343608461496881630262C1
:10140000F0BD0000002C014000340140F0B5026A3C
:1014100022F480720262026A4368C46922F4007294
:1014200024F073050C68124E2C438D6842EA0522A5
:101430000E4DA84201D0B04206D1CF6822F400621E
:1014400042EA072222F48062A84201D0B04207D1CA
:101450004D6923F4405343EA05138D6943EA0513AC
:101460004360C4614968C1630262F0BD002C014061
:101470000034014030B5026A22F480520262046AEC
:101480004268C3690D6823F4E64343EA05238D6887
:1014900024F4005444EA0534084DA84202D0084D13
:1014A000A84204D14D6922F4804242EA851242608A
:1014B000C36149680164046230BD0000002C014032
:1014C0000034014070B5044600680169E26821F407
:1014D0004051114301612169A068084361690843D3
:1014E0002168CA6841F20C639A430243CA602068CB
:1014F0004169A26921F44071114341611E4920688C
:10150000884202D1FFF7CAF801E0FFF7B7F800EB15
:10151000C00101EB0012606864218000B2FBF0F3AF
:10152000B3FBF1F36FF018067343B2FBF0F5B2FBB7
:10153000F0F605EB8305322303EB0515B5FBF1F55A
:10154000B6FBF1F605F0F00505EB0615B2FBF0F67B
:10155000B2FBF0F0B0FBF1F06FF01802504306EB75
:10156000800003EB0010B0FBF1F0216800F00F00E9
:101570002844886070BD000000380140FEE7F8B5DF
:101580000646002401220B21304600F028F90746C8
:1015900000220B21304600F022F940EA07056A4696
:1015A0001321304600F0F6F8641C9DF80010284323
:1015B000E4B2490704D0032C04D20028E2D0F8BDDD
:1015C000032CFCD36FF00B00F8BD03460020062966
:1015D00002D3001F002102E0194491F82810117075
:1015E00070470000F8B504460020154606292ED2A3
:1015F000DFE801F00305191B1D1D646B25E06A4639
:101600004421204600F0D1F8002803D1BDF8001095
:101610004FEA412606D1EEB12E604FF00101A663DC
:1016200084F82910F8BDE46B0FE0246C0DE06A46E5
:101630004FF06401204600F0B8F8002804D100BF44
:10164000BDF800104FEA4124ECD12C60F8BD6FF0DA
:101650000300F8BDA16B29604FF00001E0E7F0B591
:101660008DB00C4605460C2302AA142100F0A8F800
:1016700006007ED10021A17521609DF813009DF820
:101680001220616000EB02209DF80F209DF80E30C3
:101690004FF47A7E02EB03221204D209E2609DF835
:1016A00011309DF8106080B203EB06231B04DB09A8
:1016B00023619DF80B309DF80A6003EB06239BB273
:1016C000A382B5F852619DF8087095F831C176454E
:1016D0001FD0464306F5FA7696FBFEF02E8C95F861
:1016E0001CE080B2B6B2BEF1000F12D05E43B2EB86
:1016F000262F08D1BCF1000F02D042F2B82008E03A
:1017000048F6E0200DE05043A2EB2626B0FBF6F0B1
:1017100080B2BCF1000F04D0810821818001E07506
:1017200001E02081E1750CA8CDE90040394628464A
:1017300000F0FAF9060025D19DF83000207605F179
:1017400050011C220D4605A8FEF70EFD2089ADF8BC
:101750001C00E07D8DF82B006089ADF81E006068EC
:101760000690E068089020690990A08AADF82800EA
:1017700000E007E0207E8DF82C001C2205A92846F9
:10178000FEF7F2FC0DB03046F0BD02460020127F9D
:101790000A70704710B5002490F85C0100F0F1FA6F
:1017A00008B16FF01304204610BD10B5002490F866
:1017B0005C0100F0F4FA08B16FF01304204610BD8C
:1017C00010B50024402B00D3241F90F85C019BB27D
:1017D00000F0DAFA08B16FF01304204610BD10B51E
:1017E000002490F85C0100F0E8FA08B16FF01304EF
:1017F000204610BD2DE9F047B0F854C1D0F858018B
:10180000DDE90A860CFB00F58035DDE908972C0A36
:101810004FF0000A04FB0CF4554652B1880200EB6D
:101820005200B0FBF2F000EB4000404300F50040F6
:10183000050C07F50040000C0622C01CB0FBF2F0BE
:1018400003FB09F303F50043190C4943C0EBC00047
:10185000B0F5803F01D31C4808E0FF1CB7FBF2F055
:10186000C0EBC00000F50040000C4043084400EB12
:101870005800B0FBF8F08003FE227F30B0FBF2F09E
:1018800068434FF47A7100F5FA70B0FBF1F0000193
:1018900000F5FA70B0FBF1F7402004F12001B1FB34
:1018A000F0F000F059FA054627B104EB5700B0FB01
:1018B000F7F000E0002000F04FFA3560854200D9D3
:1018C00030605046BDE8F0870000F0FF01EBC10139
:1018D00040F277600902A1FB000170472DE9FF4F3C
:1018E00087B00446006A0690884608694FF47A710A
:1018F0004843000C0390D8F80C000590DFF8F8B1CD
:101900004FF4481604AA4146204600F000FA06AA01
:101910004146204600F009FA81464FF47A71049856
:10192000069D484300F50040070C4D43B54200D9E1
:101930003546B9F1000074D1D4F8DC00019094F878
:10194000E06001463246204600F0DCF88246D4F8DA
:10195000E4000090014694F8E820204600F0D2F818
:1019600001460320082E00D1022051444143C90200
:101970004FF47A7001F5FA71B1FBF0F140F2776241
:10198000514301F5FA71B1FBF0FA04988030010A75
:1019900001FB0AF08030060A080204900FB14EB134
:1019A00009E00999C1F800B0C4F840B10A980021D3
:1019B00001609CE001264FF44870029003984F4963
:1019C0000004B0FBF7F0884200D908464FF41671C6
:1019D00000FB01F906EB4600800000F0BDF9400075
:1019E0000390B8F8081046486A424143380400EBB7
:1019F00042024FF47A7002F5FA72B2FBF0F2431031
:101A000003EB0743B3FBF0F01202B2FBF0F0002847
:101A100000DA404298F8182000021AB14FF48035DD
:101A20000FE065E041F25C22B1FBF2F1C0F58030DD
:101A3000484300F50040000C00F58030400840436A
:101A4000850B4FF4487105FB01F000F50040010CD7
:101A500009F50040000C49434043084400F07CF97C
:101A6000000464213230B0FBF1F10398B1FBF0F0D7
:101A700040F6B531484341F2883108444900B0FB93
:101A8000F1F74FF47040874200D90746DDE90010B6
:101A900008444FF47A7800F5FA70B0FBF8F04FF490
:101AA000C81101EB5001B1FBF0F000F055F9000254
:101AB00000F5FA70B0FBF8F07F434043384400F083
:101AC0004BF9414648430EB1584500D9584609994B
:101AD0000860C4F840010A98029B03908DE808064C
:101AE000DDE904122B462046FFF784FE8146484676
:101AF0000BB0BDE8F08F0000AE878F02666666000F
:101B00009A99060000B50B461146FFF7DFFE4FF429
:101B10007A7100F5FA70B0FBF1F04B4303EB500122
:101B2000B1FBF0F000BD00002DE9FF4F8BB04FF08E
:101B30000009199D8DF800909A460646C8464F4602
:101B40008DF804908DF808908DF80C90ADF81090F9
:101B5000C1F3C304CDF81490BCB1052C15D0072CEB
:101B600013D00C2C11D00D2C0FD00E2C0DD00F2C0F
:101B70000BD0002083466A4600213046FFF725FD42
:101B80009DF80010C9B110B11DE00120F2E705ABCE
:101B900006AA30461899FFF7A1FEA0B91899059832
:101BA00007AA488100213046FFF71CFD079921B1A3
:101BB000069A8A4201D94FF0010920B902AA0221EE
:101BC0003046FFF702FD9DF8081011B338BB08AA94
:101BD00002213046FFF706FD80B90122FF21304681
:101BE000FFF7FDFD50B904AAB6213046FFF7DDFD31
:101BF00020B90022FF213046FFF7F1FDBDF810109B
:101C00004902C6F84811089A1AB1914201D94FF019
:101C1000010820B903AA03213046FFF7D6FC9DF83E
:101C20000C1091B190B9BAF1000F12D00D980102C9
:101C3000B1FBFAF0824609AA03213046FFF7D2FC35
:101C4000099911B18A4500D2012720B1287858B3EB
:101C50002DE00020EEE7BBF1000F01D0FF2013E0E4
:101C6000012C10D0022C0ED0032C0CD0062C0DD041
:101C7000092C0BD0082C04D00A2C02D0B8F1000F8C
:101C800006D0032000E00520287010E00420FBE7C8
:101C9000042C00D00FB10220F6E7B9F1000F01D0FB
:101CA0000120F1E70020287018990020488101AA3E
:101CB00001213046FFF789FC002825D19DF800104E
:101CC00011B15FEA090100D0012186F82E10042C21
:101CD00015D09DF8041091B15FF0000186F82F1027
:101CE0009DF8081011B15FEA080100D0012186F8C3
:101CF00030109DF80C1001B11FB1012102E001214B
:101D0000ECE7002186F831100FB0BDE8F08F38B550
:101D10001446CA6822606A4600F007F8002803D11A
:101D20002168009A1144216038BDF8B506460020AC
:101D30000D461060144669463046FFF726FD002820
:101D400009D19DF80010002905D0A98A326A5143B3
:101D50008031090A2160F8BD024600204FF0804121
:101D600000E089089142FCD808E04318934203D868
:101D7000D21A01EB500000E0400889080029F4D194
:101D800070470123AFF3008070B51D461346002451
:101D90002A4600F0A5F800B10124204670BD38B5F0
:101DA000144602236A46FFF7EFFF9DF801109DF8E5
:101DB000002001EB0221218038BD07B5012302AAD2
:101DC00000F001F80EBD70B51D46134600242A46EA
:101DD00000F06CF900B10124204670BD70B50E4CC6
:101DE0000025C4F88C510D48416821F070414160D4
:101DF000416841F0405141600948C0F8BC5102209F
:101E000004F5C67400F094F901202060022000F06F
:101E10008FF9256070BD0000008021420020014044
:101E20000000244270B50E4C0025C4F88C510D48BA
:101E3000416821F070414160416841F0405141608A
:101E400009480126C0F8BC61022004F5C67400F000
:101E50006FF92660022000F06BF9256070BD00006C
:101E60000080214200200140000024422DE9F0477B
:101E7000824618480024416821F070414160416861
:101E800041F000414160144EDFF85090254627464E
:101E90004FF00108C6F88C71042000F049F9C6F82B
:101EA0008C816006040ED9F83C0108B1641CE4B2D0
:101EB000042000F03DF96D1CEDB2082DEAD3BAF113
:101EC000000F04D0FFF78AFF2046BDE8F087FFF738
:101ED000A9FFF9E7002001400080214200002442D0
:101EE0002DE9F0411D4614460F46064600F062F803
:101EF000304600F027F800F0A9F820B100F080F893
:101F00000120BDE8F081384600F01CF800F09EF892
:101F100000F050F846F0010000F014F800F096F8D8
:101F200008E0012C0CD00120FFF7A0FF641E05F88B
:101F3000010BA4B2002CF4D100F062F80020E0E71D
:101F40000020F1E72DE9F04705461748416821F0E8
:101F500070414160416841F040514160134F00269B
:101F6000C7F88C61DFF8489034464FF00108280626
:101F700002D5C9F8BC8101E0C9F8BC616806050E4C
:101F8000022000F0D5F8C7F88C81022000F0D0F8CC
:101F9000C7F88C61022000F0CBF8641CE4B2082C76
:101FA000E5D3BDE8F0870000002001400080214219
:101FB0000000244270B50F48416821F07041416033
:101FC000416841F0405141600B4C0120C4F8BC0114
:101FD0000A4DC5F88C01042004F5DE7405F5C675BC
:101FE00000F0A6F800262660042000F0A1F82E607C
:101FF00070BD00000020014000002442008021420A
:1020000070B50F48416821F070414160416841F06E
:10201000405141600B4C0020C4F88C010A4DC5F8BA
:10202000BC01042004F5C67405F5DE7500F080F8E7
:10203000012020602860BDE87040042000F078B8DE
:102040000020014000802142000024422DE9F0419F
:1020500013480024416821F070414160416841F01B
:10206000004141600F4D0126C5F8BC61304600F0CB
:102070005FF80D4FC7F88C61012000F059F808E0B7
:10208000641CE4B2FA2C04D9FFF7BAFF0120BDE8C2
:10209000F081D5F83C010028F2D1C7F88C01F6E7B1
:1020A0000020014000002442008021422DE9F0413F
:1020B0001C4615460F460646FFF77CFF3046FFF7E5
:1020C00041FFFFF7C3FF20B1FFF79AFF0120BDE8F2
:1020D000F081384602E000BF14F8010BFFF732FF31
:1020E000FFF7B4FF6D1EADB2F6D2FFF789FF0020F7
:1020F000EDE70907090E002804DB00F1E02080F875
:102100000014704700F00F0000F1E02080F8141D6B
:10211000704702E008C8121F08C1002AFAD17047B0
:102120007047002001E001C1121F002AFBD1704757
:1021300070B54FF0E02300215C6900EBC0009A69A4
:10214000C50098699042FCD002D2A2EB000202E0E6
:10215000A4EB0006324411440246A942F1D370BDFB
:10216000FEF774F9FFF77EF8FEF772FEFFF758F8F6
:10217000FEF77AFFFEF7C2FFFFF712F8FEF732FF15
:10218000FEE7000000000000000001020304060753
:10219000080900000000010203040000BC2100083F
:1021A000000000201000000012210008CC210008CF
:1021B000100000204007000022210008010000005C
:0C21C00010000000000000000024F400EB
:0400000508000131BD
:00000001FF
