:020000040800F2
:100000008807002045010008B7130008AB0F00085F
:10001000B5130008770200081D1900080000000051
:100020000000000000000000000000009B15000818
:100030007902000800000000991500089D150008CD
:100040005F0100085F0100085F0100085F01000810
:100050005F0100085F0100085F0100085F01000800
:100060005F0100085F0100087D0200085F010008D1
:100070005F0100085F0100085F0100085F010008E0
:100080005F0100085F0100085F0100085F010008D0
:100090005F0100085F0100085F0100085F010008C0
:1000A0005F0100085F0100085F0100085F010008B0
:1000B0005F0100085F0100085F0100085F010008A0
:1000C0005F0100085F0100085F0100085F01000890
:1000D0005F0100085F0100085F0100085F01000880
:1000E0005F0100085F0100085F0100085F01000870
:1000F0005F0100085F0100085F0100085F01000860
:100100005F0100085F0100085F0100085F0100084F
:100110005F0100085F0100085F0100085F0100083F
:100120005F0100085F0100085F0100085F0100082F
:10013000DFF80CD000F07EF800480047FD270008EB
:10014000880700200648804706480047FEE7FEE78C
:10015000FEE7FEE7FEE7FEE7FEE7FEE7FEE7FEE777
:10016000EF15000831010008202A04DB203A21FAAB
:1001700002F00021704721FA02F3D040C2F12002C0
:10018000914008431946704740EA01039B0703D09A
:1001900009E008C9121F08C0042AFAD203E011F8C6
:1001A000013B00F8013B521EF9D27047D2B201E088
:1001B00000F8012B491EFBD270470022F6E710B56C
:1001C00013460A4604461946FFF7F0FF204610BDC5
:1001D0002DE9F05F0546002092469B46884606467C
:1001E000814640241BE02846414647462246FFF709
:1001F000BBFF53465A46C01A914110D311461846C8
:10020000224600F029F82D1A67EB01084F462246D6
:100210000120002100F020F817EB00094E41201EBC
:10022000A4F10104DFDC484631462A464346BDE8D6
:10023000F09F0000064C074D06E0E06840F0010327
:1002400094E8070098471034AC42F6D3FFF774FFE8
:100250008C280008AC280008202A04DB203A00FA89
:1002600002F1002070479140C2F1200320FA03F30D
:10027000194390407047FEE77047000010B50749EA
:10028000074801F0BCFB462000F010F800210448AC
:1002900001F045FB03492020086010BD68030020E1
:1002A000A4010020140401407047000070B504460A
:1002B00000F014F90546601C02D00448007804449C
:1002C00000F00CF9401BA042FAD370BD24000020BE
:1002D0002DE9F84FDFF8C891002409F1040A0AF16A
:1002E000040B23460F270BF1040ED1E00125A54096
:1002F00006EA0502AA4276D1DFF8A8C14E68A6EB4D
:100300000C0866452BD00DDC032E34D005DC36B34B
:10031000012E19D0022E2FD11BE0112E16D0122E35
:100320002AD119E0B8F5881F19D006DCB8F5803F4E
:1003300015D0B8F5801F1FD111E0B8F5001F0ED001
:10034000B8F5041F18D10AE0CB6815E0CB681B1D77
:1003500012E0CB6808330FE0CB680C330CE08B68FD
:100360002BB1012B4FF0080303D0456104E00423B7
:1003700002E0056100E00023FF2A01D8064601E003
:1003800000F104064FEA840501D9A5F12005D6F84D
:10039000008007FA05FC28EA0C0803FA05F548EA8C
:1003A0000508C6F800804D68ED0070D53E4DAE6979
:1003B00046F00106AE61AD6924F0030605F00105C3
:1003C00000953A4D06EB050CDCF80850A607360FF1
:1003D00007FA06F825EA0805DFF8D480404503D17E
:1003E0004FF0000825E052E0DFF8C880404502D118
:1003F0004FF001081DE0DFF8C080404502D14FF00A
:10040000020816E0DFF8B480404502D14FF003083F
:100410000FE0DFF8AC80404502D14FF0040808E05F
:10042000DFF8A080404502D14FF0050801E04FF011
:10043000060808FA06F848EA0508CCF808804D686E
:10044000D9F80060ED034D4601D5164300E0964310
:100450002E604D68DAF80060AD03554601D51643AD
:1004600000E096432E604D68DBF80060ED025D46CB
:1004700001D5164300E096432E604D68DEF800601B
:10048000AD02754601D5164300E096432E60641C0C
:100490000A681646E2407FF429AFBDE8F88F0000F5
:1004A0000004014000001110001002400000014053
:1004B00000080140000C0140001001400014014000
:1004C00000180140001C01408068084000D0012055
:1004D00070470AB1016170470904FBE70148806871
:1004E000704700002400002002488168027811440F
:1004F0008160704724000020074810B5016841F072
:1005000010010160032000F067F8002000F006F8F9
:1005100000F024F8002010BD0020024070B50D4D01
:1005200004464FF47A712878B1FBF0F00A49096863
:10053000B1FBF0F000F0DEFA48B9102C07D200222F
:100540002146501E00F028F800206C6070BD01208C
:1005500070BD000024000020300000200C4808B5C9
:10056000816941F001018161816901F0010100911E
:10057000C16941F08051C161C06900F080500090B4
:100580000448416821F0E06141F00071416008BD1C
:100590000010024000000140F0B40E4B1B680C46F6
:1005A000C3F30223C3F10705042D00D90425191D47
:1005B000072901D2002300E0DB1E012606FA05F11F
:1005C000491E214099409E40761E16403143F0BCA2
:1005D00001F070BF0CED00E0064900F0070208686A
:1005E0004FF6FF03184040EA0220034A1043086018
:1005F000704700000CED00E00000FA052DE9F0471F
:100600000F46050061D0434E306800F00700B84245
:1006100009D2306820F0070038433060306800F0BD
:100620000700B84251D128683B4C810712D54007DA
:1006300003D5606840F4E06060602878000703D567
:10064000606840F4605060606068A96820F0F00065
:10065000084360602878C00728D06868012810D057
:100660002168022810D0890700292EDA616821F05C
:10067000030101436160FFF731FF804641F2883991
:100680000DE021688903EFE78901EDE7FFF726FF19
:10069000A0EB0801494502D90320BDE8F087606856
:1006A000696800F00C00B0EB810FEFD1306800F00A
:1006B0000700B8420BD9306820F00700384330609B
:1006C000306800F00700B84201D00120E5E7287843
:1006D000400705D56068E96820F4E0600843606081
:1006E0002878000706D56068296920F4605040EA40
:1006F000C100606000F038F86168084AC1F3031176
:10070000515CC8400649086006480068FFF706FFCC
:100710000020C2E7002002400010024074280008B8
:10072000300000202800002004480549006849687E
:10073000044AC1F30221515CC840704730000020D8
:1007400000100240842800080448054900684968F0
:10075000044AC1F3C221515CC840704730000020F8
:10076000001002408428000812A185B00FC98DE84E
:100770000F0014A0144A006804905168134801F057
:100780000C03042B10D0082B0ED1C1F38343C903F3
:100790001DF803000AD5516804AAC1F34041515C19
:1007A0000A4A5043B0FBF1F005B07047084948438E
:1007B000FAE7000002030405060708090A0B0C0DFE
:1007C0000E0F1010010200000010024000127A000B
:1007D00000093D002DE9F84F040070D02078C04D8D
:1007E000C00749D06868C0F38100012807D0686855
:1007F000C0F38100022809D16868C00306D52868C3
:10080000800339D560680028E7D035E06068B0F52E
:10081000803F0BD010B1B0F5A02F11D0286820F484
:1008200080302860286820F4802002E0286840F4A6
:1008300080302860606890B1FFF750FE06460AE0FD
:10084000286840F480202860F0E700BFFFF746FEEC
:10085000801B642873D828688003F7D50CE0FFF765
:100860003DFE064605E000BFFFF738FE801B64280A
:10087000F0D828688003F7D420789A4E80074FF08C
:1008800001094FF0000839D5686810F00C0F07D047
:100890006868C0F38100022809D16868C00306D4E3
:1008A0002868800714D52069012808D110E0206944
:1008B000B0B1C6F80090FFF711FE074605E00AE167
:1008C000FFF70CFEC01B0228C4D828688007F7D5A4
:1008D0002868616920F0F80040EAC10028600DE056
:1008E000C6F80080FFF7FAFD074604E0FFF7F6FDC3
:1008F000C01B022823D828688007F7D42078000777
:100900002CD57948A169D9B1C0F80090FFF7E6FD70
:10091000074604E0FFF7E2FDC01B02280FD8686A13
:100920008007F7D571484FF4FA510068B0FBF1F039
:10093000009000BF0098411E0091FAD20EE080E0C6
:10094000C0F80080FFF7CAFD074604E0FFF7C6FDC8
:10095000C01B022875D8686A8007F7D42078400742
:1009600060D5E8690027C00008D4E86940F08050ED
:10097000E861E869012700F0805000905C48016858
:10098000C90513D40168834641F480710160FFF703
:10099000A5FD824606E000BFFFF7A0FDA0EB0A0020
:1009A00064284ED8DBF80000C005F5D5E0680128C2
:1009B0000AD008B1052813D0286A20F00100286267
:1009C000286A20F0040002E0286A40F00100286252
:1009D000E06841F2883B98B1FFF780FD82460BE06A
:1009E000286A40F004002862EEE700BFFFF776FDBA
:1009F000A0EB0A0159455AD8286A8007F6D50CE0C1
:100A0000FFF76CFD824605E0FFF768FDA0EB0A01E9
:100A100059454CD8286A8007F6D41FB1E86920F000
:100A20008050E861E06988B36968C1F381010229F7
:100A300044D00228C6F8608004D0FFF74FFD04467A
:100A400038E034E0FFF74AFD074604E0FFF746FDD3
:100A5000C01B02282BD828688001F7D4206AB0F583
:100A6000803F05D16868A16820F4003008436860C1
:100A7000D4E908010843696821F4741108436860E7
:100A8000C6F86090FFF72AFD044606E025E000BFA7
:100A9000FFF724FD001B022809D828688001F7D53C
:100AA0001BE000BFFFF71AFD001B022802D903203C
:100AB000BDE8F88F28688001F4D40EE00128F7D053
:100AC0006868226A00F48031914204D1616A00F4BE
:100AD0007010884201D00120EAE70020E8E700001A
:100AE00000100240000042428004424230000020D8
:100AF0000070004010B5401EB0F1807F01D301208E
:100B000010BD4FF0E02460610F21601701F0D2FCAE
:100B10000020A06107202061002010BD70B590F872
:100B20003C20012A2CD0012480F83C40022280F88D
:100B30003D2003685A689D6822F070060A683243B7
:100B40005A60104B02689A420ED00F4B9A420BD05B
:100B5000B2F1804F08D00D4B9A4205D00C4B9A420F
:100B600002D00C4B9A4204D1496825F08003194306
:100B7000916080F83D40002180F83C10084670BD2F
:100B8000022070BD002C01400034014000040040F0
:100B900000080040000C004030B585B000210091F5
:100BA00001910291039102683249032402253248DF
:100BB000B2F1804F24D0314B9A422DD18A6942F054
:100BC00004028A618A6902F0040204928A6942F08E
:100BD00008028A618969039401F008010491C02127
:100BE000CDE900156946FFF773FB0120CDE900054B
:100BF00023486946039400BFFFF76AFB05B030BD88
:100C00008A6942F004028A618969CDE9004501F0F0
:100C10000401CDE903412AE01A4B9A4218D18869B0
:100C200040F0200088618869694600F02000049047
:100C30004FF47040CDE9000503941348FFF748FBDB
:100C40001248416841F0E06141F480514160D5E7CC
:100C50000F4B9A42D2D18A6942F004028A618969B3
:100C6000039401F0040104910C21CDE900156946BB
:100C7000C2E70000001002400008014000040040EC
:100C8000000C014000080040001401400000014039
:100C9000000C004070B5044690F83C000D46012859
:100CA0000AD0012084F83C0042B1042A18D0082A56
:100CB0002AD00C2A4DD139E0022070BD206800F006
:100CC000DDFC2068816941F008018161206881694B
:100CD00021F004018161206881692A69114311E0D2
:100CE000206800F0FBFC2068816941F400618161AB
:100CF0002068816921F480618161206881692A69A5
:100D000041EA0221816124E0206800F01DFD206895
:100D1000C16941F00801C1612068C16921F0040185
:100D2000C1612068C1692A69114311E0206800F09F
:100D30003FFD2068C16941F40061C1612068C1695B
:100D400021F48061C1612068C1692A6941EA0221F8
:100D5000C161002084F83C0070BD10B5040003D0D0
:100D600094F83D0010B107E0012010BD002084F888
:100D70003C00204600F01EF8022084F83D00211DB2
:100D8000206800F035FC012084F8460084F83E001D
:100D900084F83F0084F8400084F8410084F8420061
:100DA00084F8430084F8440084F8450084F83D004A
:100DB000002010BD08B501681648B1F1804F0BD076
:100DC000154A914210D1C16941F00201C161C06967
:100DD00000F00200009008BDC16941F00101C1614D
:100DE000C06900F00100F5E70C4A914207D1C169E2
:100DF00041F00401C161C06900F00400EAE7084A5B
:100E00009142E8D1C16941F00801C161C06900F0B7
:100E10000800DFE700100240000400400008004026
:100E2000000C004070B5040004D094F8390000258F
:100E300010B106E0012070BD84F83850204600F063
:100E400023F8242084F839002068C16821F4005177
:100E5000C160204600F0D4FC2068016921F4904173
:100E600001612068416921F02A0141612068C1685F
:100E700041F40051C160E563202084F8390084F812
:100E80003A00002070BD000030B585B00024009409
:100E900001940294039400681449884224D11448B0
:100EA000816941F480418161816901F4804104914B
:100EB000816941F00401816180690E4D00F00400F8
:100EC00004904FF4007000900220019003200390E2
:100ED00069462846FFF7FCF92815CDE90004694664
:100EE00028460294FFF7F4F905B030BD0038014000
:100EF00000100240000801402DE9F843044690F834
:100F000039001F4616460D4620284CD1C5B1BEB14A
:100F100094F83800012846D0012084F838004FF0BA
:100F20000008C4F83C80212084F83900FFF7D6FA85
:100F3000A6848146E684A068B0F5805F03D004E013
:100F40000120BDE8F883206928B12E465FF0000536
:100F500084F838800EE00026FAE78021204600F071
:100F6000ABFCA0B9AEB116F8010B21684860E08C6B
:100F7000401EE084E08C4B464FF0000200970028B2
:100F8000EBD14FF04001204600F096FC30B1032039
:100F9000D7E735F8020BC0F30800E6E7202084F815
:100FA00039000020CDE70220CBE7FEE72DE9F04F26
:100FB00085B000265B4800960196029603968169EB
:100FC00041F080018161816901F0800104918169B2
:100FD00041F004018161816901F00401049181699A
:100FE00041F008018161816901F008010491816982
:100FF00041F040018161816901F040010491816902
:1010000041F020018161816901F020010491816931
:1010100041F010018161816901F010010491816941
:1010200041F4807181618069DFF8FCB000F4807068
:10103000049000221E215846FFF74BFA4FF46058E7
:10104000002241463948FFF744FA4FF4E0590022A4
:1010500049463748FFF73DFA0022FF213548FFF7A0
:1010600038FA4FF45C4A002251463348FFF731FA10
:10107000002208213148FFF72CFA012220212F48B5
:10108000FFF727FA1E200124022503278DE8B1006F
:1010900069465846FFF71CF901AACDF8008082E89E
:1010A000B00069462148FFF713F9A003CDE9000617
:1010B000694602951D48FFF70BF901AACDF800908B
:1010C00082E8B00069461A48FFF702F9FF208DE870
:1010D000B10069461748FFF7FBF84FF40850CDE917
:1010E0000006694602941448FFF7F2F801AACDF809
:1010F00000A082E8B00069460F48FFF7E9F8282011
:101100008DE8B10069460D48FFF7E2F81020CDE9FF
:101110000006694602940948FFF7DAF805B0BDE811
:10112000F08F000000100240001C01400018014038
:10113000001001400014014000200140000C01405B
:1011400010B58AB0002407941C2168460894FFF764
:1011500034F81B484FF0804101604721C0E9011479
:1011600044F61F61C0E903148461FFF7F6FD08B17E
:10117000FFF79AF8079407A911480894FFF7CEFCE7
:1011800008B1FFF791F8602000904FF47A70CDE934
:101190000104002269460A480494FFF77BFD08B168
:1011A000FFF782F8042269460548FFF773FD08B18E
:1011B000FFF77AF80248FFF7EFFC0AB010BD000015
:1011C0004400002010B58AB0002407941C21684612
:1011D0000894FEF7F2FF1F481D4901604721C0E94E
:1011E000011444F61F61C0E903148461FFF7B5FDE3
:1011F00008B1FFF759F8079407A916480894FFF7B4
:101200008DFC08B1FFF750F8602000904FF47A7021
:10121000CDE90104002269460E480494FFF73AFD27
:1012200008B1FFF741F8042269460A48FFF732FD8A
:1012300008B1FFF739F8082269460648FFF72AFD8A
:1012400008B1FFF731F80348FFF7A6FC0AB010BD5C
:10125000000400408C00002010B58AB000240794E0
:101260001C2168460894FEF7A8FF23482149016025
:101270004721C0E9011441F28731C0E903148461B8
:10128000FFF76BFD08B1FFF70FF8079407A91A489D
:101290000894FFF743FC08B1FFF706F860200090C0
:1012A00040F6B830CDE901040022694612480494A2
:1012B000FFF7F0FC08B1FEF7F7FF042269460E487D
:1012C000FFF7E8FC08B1FEF7EFFF082269460A487D
:1012D000FFF7E0FC08B1FEF7E7FF0C22694606487D
:1012E000FFF7D8FC08B1FEF7DFFF0348FFF754FC17
:1012F0000AB010BD00080040D400002010B58AB02C
:10130000002407941C2168460894FEF756FF1A48EB
:10131000184901604721C0E901140921C0E90314FB
:101320008461FFF71AFD08B1FEF7BEFF079407A915
:1013300011480894FFF7F2FB08B1FEF7B5FF6020F3
:1013400000900520CDE90104082269460A4804946A
:10135000FFF7A0FC08B1FEF7A7FF0C22694606487C
:10136000FFF798FC08B1FEF79FFF0348FFF714FC56
:101370000AB010BD000C00401C0100200C4810B544
:101380000A4901604FF4E1314160002181600C2283
:10139000C160C0E904128161C161FFF743FD00280B
:1013A00003D0BDE81040FEF77FBF10BD00380140FC
:1013B00064010020FEE770470149085C70470000A7
:1013C000380000200020044902460A54401CC0B2E4
:1013D0000928FAD370470000380000202DE9F84FA3
:1013E00080460120ADF80000234F00217970ADF850
:1013F00000004FF40059214CC5024FF4804A4FF6CB
:10140000FF7630E0BDF8000010EA080F01D001229D
:1014100000E0002249462046FFF75BF801222946FA
:101420002046FFF756F8052001F0C4F900222946AE
:101430002046FFF74EF8052001F0BCF901222946AD
:101440002046FFF746F851462046FFF73DF820B109
:101450007878BDF8001008437870BDF8000006EAFF
:101460004000ADF80000BDF80000FF28CAD9BDE873
:10147000F84F102001F09EB93800002000180140FC
:1014800070B5FFF79FFF00F01BF80B480B4BB0F84F
:1014900003100A481B1D41800020012413F810503E
:1014A00000F101006D1E04FA05F20A42C0B202D03A
:1014B0001028F3D3002070BD380000200000002069
:1014C0002DE9FC4700208DF800000124ADF8044010
:1014D0002E4E02464FF4805A51463046FEF7F9FF31
:1014E0002B4D2878FFF77AFF6878FFF777FF022007
:1014F0008DF80000A046344685024FF48049254F00
:101500004FF6FF7636E0404626E001222946204687
:10151000FEF7DFFF052001F04DF9002229462046A5
:10152000FEF7D7FF052001F045F9012229462046A4
:10153000FEF7CFFF49462046FEF7C6FF40B19DF8B3
:101540000000BDF80410385C08439DF80010785482
:10155000BDF8040006EA4000ADF80400BDF8040040
:10156000FF28D2D9102001F025F99DF80000401C79
:101570008DF800009DF800000928C4D302B0514640
:101580002046BDE8F0470122FEF7A3BF0018014046
:10159000000000203800002070477047FEF7A4BF0D
:1015A00030B58FB028216846FEF707FE14210AA83F
:1015B000FEF703FE01210804CDE900100024029487
:1015C00002250491CDE907504FF4E01009906846D8
:1015D000FFF700F90F20CDE90A056802CDE90C40BC
:1015E00002210AA80E94FFF709F80FB030BD70472A
:1015F000F0B502681C4B1D4D1D4E1E4F1E4C4FF08A
:10160000804C984209D0A04207D0604505D0A8423E
:1016100003D0B04201D0B84204D122F0700E4A6823
:1016200042EA0E02984209D0A04207D0604505D098
:10163000A84203D0B04201D0B84203D122F4407591
:10164000CA682A434D6922F080022A4302608A68F0
:10165000C2620A688262984201D0A04201D109693F
:10166000016301214161F0BD002C014000040040F4
:1016700000080040000C004000340140F0B5026A50
:1016800022F001020262036A42688469124E24F069
:1016900073050C682C4323F002058B682B430D4D1A
:1016A000A84201D0B04205D123F00807CB683B43E4
:1016B00023F00403A84201D0B04205D14D6922F4C1
:1016C000407215438A692A434260846149684163D4
:1016D0000362F0BD002C014000340140F0B5026A05
:1016E00022F010020262026A436884690D6824F4E1
:1016F000E64444EA05248D6822F0200242EA0512FD
:101700000F4D104EA84201D0B04206D1CF6822F052
:10171000800242EA071222F04002A84201D0B04201
:1017200007D14D6923F4406343EA85038D6943EA99
:10173000850343608461496881630262F0BD0000F3
:10174000002C014000340140F0B5026A22F480729E
:101750000262026A4368C46922F4007224F07305CD
:101760000C68124E2C438D6842EA05220E4DA842A9
:1017700001D0B04206D1CF6822F4006242EA0722CB
:1017800022F48062A84201D0B04207D14D6923F40F
:10179000405343EA05138D6943EA05134360C4616E
:1017A0004968C1630262F0BD002C01400034014071
:1017B00030B5026A22F480520262046A4268C36948
:1017C0000D6823F4E64343EA05238D6824F40054AE
:1017D00044EA0534084DA84202D0084DA84204D17D
:1017E0004D6922F4804242EA85124260C361496831
:1017F0000164046230BD0000002C0140003401404F
:1018000070B5044600680169E26821F44051114353
:1018100001612169A0680843616908432168CA68B9
:1018200041F20C639A430243CA6020684169A2698D
:1018300021F44071114341611E492068884202D160
:10184000FEF782FF01E0FEF76FFF00EBC00101EB46
:101850000012606864218000B2FBF0F3B3FBF1F387
:101860006FF018067343B2FBF0F5B2FBF0F605EB30
:101870008305322303EB0515B5FBF1F5B6FBF1F655
:1018800005F0F00505EB0615B2FBF0F6B2FBF0F043
:10189000B0FBF1F06FF01802504306EB800003EB51
:1018A0000010B0FBF1F0216800F00F0028448860C0
:1018B00070BD0000003801402DE9F0419846174600
:1018C0000E460446069D1DE0681C1BD02DB1FEF798
:1018D00005FEA0EB0800A84214D92068C16821F4D5
:1018E000D071C1602068416921F00101416120206F
:1018F00084F8390084F83A00002084F83800032086
:10190000BDE8F0812068006836EA000004D00020BD
:10191000B842D9D00020F3E70120F9E7FEE7F8B597
:101920000646002401220B21304600F028F9074624
:1019300000220B21304600F022F940EA07056A46F2
:101940001321304600F0F6F8641C9DF8001028437F
:10195000E4B2490704D0032C04D20028E2D0F8BD39
:10196000032CFCD36FF00B00F8BD034600200629C2
:1019700002D3001F002102E0194491F828101170D1
:1019800070470000F8B504460020154606292ED2FF
:10199000DFE801F00305191B1D1D646B25E06A4695
:1019A0004421204600F0D1F8002803D1BDF80010F2
:1019B0004FEA412606D1EEB12E604FF00101A66339
:1019C00084F82910F8BDE46B0FE0246C0DE06A4642
:1019D0004FF06401204600F0B8F8002804D100BFA1
:1019E000BDF800104FEA4124ECD12C60F8BD6FF037
:1019F0000300F8BDA16B29604FF00001E0E7F0B5EE
:101A00008DB00C4605460C2302AA142100F0A8F85C
:101A100006007ED10021A17521609DF813009DF87C
:101A20001220616000EB02209DF80F209DF80E301F
:101A30004FF47A7E02EB03221204D209E2609DF891
:101A400011309DF8106080B203EB06231B04DB0904
:101A500023619DF80B309DF80A6003EB06239BB2CF
:101A6000A382B5F852619DF8087095F831C17645AA
:101A70001FD0464306F5FA7696FBFEF02E8C95F8BD
:101A80001CE080B2B6B2BEF1000F12D05E43B2EBE2
:101A9000262F08D1BCF1000F02D042F2B82008E096
:101AA00048F6E0200DE05043A2EB2626B0FBF6F00E
:101AB00080B2BCF1000F04D0810821818001E07563
:101AC00001E02081E1750CA8CDE9004039462846A7
:101AD00000F0FAF9060025D19DF83000207605F1D6
:101AE00050011C220D4605A8FEF74EFB2089ADF8DB
:101AF0001C00E07D8DF82B006089ADF81E00606849
:101B00000690E068089020690990A08AADF8280046
:101B100000E007E0207E8DF82C001C2205A9284655
:101B2000FEF732FB0DB03046F0BD02460020127FBA
:101B30000A70704710B5002490F85C0100F0F1FACB
:101B400008B16FF01304204610BD10B5002490F8C2
:101B50005C0100F0F4FA08B16FF01304204610BDE8
:101B600010B50024402B00D3241F90F85C019BB2D9
:101B700000F0DAFA08B16FF01304204610BD10B57A
:101B8000002490F85C0100F0E8FA08B16FF013044B
:101B9000204610BD2DE9F047B0F854C1D0F85801E7
:101BA000DDE90A860CFB00F58035DDE908972C0A93
:101BB0004FF0000A04FB0CF4554652B1880200EBCA
:101BC0005200B0FBF2F000EB4000404300F5004053
:101BD000050C07F50040000C0622C01CB0FBF2F01B
:101BE00003FB09F303F50043190C4943C0EBC000A4
:101BF000B0F5803F01D31C4808E0FF1CB7FBF2F0B2
:101C0000C0EBC00000F50040000C4043084400EB6E
:101C10005800B0FBF8F08003FE227F30B0FBF2F0FA
:101C200068434FF47A7100F5FA70B0FBF1F00001EF
:101C300000F5FA70B0FBF1F7402004F12001B1FB90
:101C4000F0F000F059FA054627B104EB5700B0FB5D
:101C5000F7F000E0002000F04FFA3560854200D92F
:101C600030605046BDE8F0870000F0FF01EBC10195
:101C700040F277600902A1FB000170472DE9FF4F98
:101C800087B00446006A0690884608694FF47A7166
:101C90004843000C0390D8F80C000590DFF8F8B129
:101CA0004FF4481604AA4146204600F000FA06AA5E
:101CB0004146204600F009FA81464FF47A710498B3
:101CC000069D484300F50040070C4D43B54200D93E
:101CD0003546B9F1000074D1D4F8DC00019094F8D5
:101CE000E06001463246204600F0DCF88246D4F837
:101CF000E4000090014694F8E820204600F0D2F875
:101D000001460320082E00D1022051444143C9025C
:101D10004FF47A7001F5FA71B1FBF0F140F277629D
:101D2000514301F5FA71B1FBF0FA04988030010AD1
:101D300001FB0AF08030060A080204900FB14EB190
:101D400009E00999C1F800B0C4F840B10A9800212F
:101D500001609CE001264FF44870029003984F49BF
:101D60000004B0FBF7F0884200D908464FF4167122
:101D700000FB01F906EB4600800000F0BDF94000D1
:101D80000390B8F8081046486A424143380400EB13
:101D900042024FF47A7002F5FA72B2FBF0F243108D
:101DA00003EB0743B3FBF0F01202B2FBF0F00028A4
:101DB00000DA404298F8182000021AB14FF480353A
:101DC0000FE065E041F25C22B1FBF2F1C0F580303A
:101DD000484300F50040000C00F5803040084043C7
:101DE000850B4FF4487105FB01F000F50040010C34
:101DF00009F50040000C49434043084400F07CF9D9
:101E0000000464213230B0FBF1F10398B1FBF0F033
:101E100040F6B531484341F2883108444900B0FBEF
:101E2000F1F74FF47040874200D90746DDE9001012
:101E300008444FF47A7800F5FA70B0FBF8F04FF4EC
:101E4000C81101EB5001B1FBF0F000F055F90002B0
:101E500000F5FA70B0FBF8F07F434043384400F0DF
:101E60004BF9414648430EB1584500D958460999A7
:101E70000860C4F840010A98029B03908DE80806A8
:101E8000DDE904122B462046FFF784FE81464846D2
:101E90000BB0BDE8F08F0000AE878F02666666006B
:101EA0009A99060000B50B461146FFF7DFFE4FF486
:101EB0007A7100F5FA70B0FBF1F04B4303EB50017F
:101EC000B1FBF0F000BD00002DE9FF4F8BB04FF0EB
:101ED0000009199D8DF800909A460646C8464F465F
:101EE0008DF804908DF808908DF80C90ADF8109056
:101EF000C1F3C304CDF81490BCB1052C15D0072C48
:101F000013D00C2C11D00D2C0FD00E2C0DD00F2C6B
:101F10000BD0002083466A4600213046FFF725FD9E
:101F20009DF80010C9B110B11DE00120F2E705AB2A
:101F300006AA30461899FFF7A1FEA0B9189905988E
:101F400007AA488100213046FFF71CFD079921B1FF
:101F5000069A8A4201D94FF0010920B902AA02214A
:101F60003046FFF702FD9DF8081011B338BB08AAF0
:101F700002213046FFF706FD80B90122FF213046DD
:101F8000FFF7FDFD50B904AAB6213046FFF7DDFD8D
:101F900020B90022FF213046FFF7F1FDBDF81010F7
:101FA0004902C6F84811089A1AB1914201D94FF076
:101FB000010820B903AA03213046FFF7D6FC9DF89B
:101FC0000C1091B190B9BAF1000F12D00D98010226
:101FD000B1FBFAF0824609AA03213046FFF7D2FC92
:101FE000099911B18A4500D2012720B1287858B348
:101FF0002DE00020EEE7BBF1000F01D0FF2013E041
:10200000012C10D0022C0ED0032C0CD0062C0DD09D
:10201000092C0BD0082C04D00A2C02D0B8F1000FE8
:1020200006D0032000E00520287010E00420FBE724
:10203000042C00D00FB10220F6E7B9F1000F01D057
:102040000120F1E70020287018990020488101AA9A
:1020500001213046FFF789FC002825D19DF80010AA
:1020600011B15FEA090100D0012186F82E10042C7D
:1020700015D09DF8041091B15FF0000186F82F1083
:102080009DF8081011B15FEA080100D0012186F81F
:1020900030109DF80C1001B11FB1012102E00121A7
:1020A000ECE7002186F831100FB0BDE8F08F38B5AD
:1020B0001446CA6822606A4600F007F8002803D177
:1020C0002168009A1144216038BDF8B50646002009
:1020D0000D461060144669463046FFF726FD00287D
:1020E00009D19DF80010002905D0A98A326A514310
:1020F0008031090A2160F8BD024600204FF080417E
:1021000000E089089142FCD808E04318934203D8C4
:10211000D21A01EB500000E0400889080029F4D1F0
:1021200070470123AFF3008070B51D4613460024AD
:102130002A4600F0A5F800B10124204670BD38B54C
:10214000144602236A46FFF7EFFF9DF801109DF841
:10215000002001EB0221218038BD07B5012302AA2E
:1021600000F001F80EBD70B51D46134600242A4646
:1021700000F06CF900B10124204670BD70B50E4C22
:102180000025C4F88C510D48416821F07041416030
:10219000416841F0405141600948C0F8BC510220FB
:1021A00004F5C67400F006FB01202060022000F058
:1021B00001FB256070BD000000802142002001402D
:1021C0000000244270B50E4C0025C4F88C510D4817
:1021D000416821F070414160416841F040514160E7
:1021E00009480126C0F8BC61022004F5C67400F05D
:1021F000E1FA2660022000F0DDFA256070BD0000E3
:102200000080214200200140000024422DE9F047D7
:10221000824618480024416821F0704141604168BD
:1022200041F000414160144EDFF8509025462746AA
:102230004FF00108C6F88C71042000F0BBFAC6F814
:102240008C816006040ED9F83C0108B1641CE4B22C
:10225000042000F0AFFA6D1CEDB2082DEAD3BAF1FC
:10226000000F04D0FFF78AFF2046BDE8F087FFF794
:10227000A9FFF9E70020014000802142000024422C
:102280002DE9F0411D4614460F46064600F062F85F
:10229000304600F027F800F0A9F820B100F080F8EF
:1022A0000120BDE8F081384600F01CF800F09EF8EF
:1022B00000F050F846F0010000F014F800F096F835
:1022C00008E0012C0CD00120FFF7A0FF641E05F8E8
:1022D000010BA4B2002CF4D100F062F80020E0E77A
:1022E0000020F1E72DE9F04705461748416821F045
:1022F00070414160416841F040514160134F0026F8
:10230000C7F88C61DFF8489034464FF00108280682
:1023100002D5C9F8BC8101E0C9F8BC616806050EA8
:10232000022000F047FAC7F88C81022000F042FA40
:10233000C7F88C61022000F03DFA641CE4B2082C5E
:10234000E5D3BDE8F0870000002001400080214275
:102350000000244270B50F48416821F0704141608F
:10236000416841F0405141600B4C0120C4F8BC0170
:102370000A4DC5F88C01042004F5DE7405F5C67518
:1023800000F018FA00262660042000F013FA2E60F0
:1023900070BD000000200140000024420080214266
:1023A00070B50F48416821F070414160416841F0CB
:1023B000405141600B4C0020C4F88C010A4DC5F817
:1023C000BC01042004F5C67405F5DE7500F0F2F9D1
:1023D000012020602860BDE87040042000F0EAB9C8
:1023E0000020014000802142000024422DE9F041FC
:1023F00013480024416821F070414160416841F078
:10240000004141600F4D0126C5F8BC61304600F027
:10241000D1F90D4FC7F88C61012000F0CBF908E02D
:10242000641CE4B2FA2C04D9FFF7BAFF0120BDE81E
:10243000F081D5F83C010028F2D1C7F88C01F6E70D
:102440000020014000002442008021422DE9F0419B
:102450001C4615460F460646FFF77CFF3046FFF741
:1024600041FFFFF7C3FF20B1FFF79AFF0120BDE84E
:10247000F081384602E000BF14F8010BFFF732FF8D
:10248000FFF7B4FF6D1EADB2F6D2FFF789FF002053
:10249000EDE700000FB4054B10B503A9044A0298FC
:1024A00000F028F810BC5DF814FB0000E5270008D8
:1024B000340000200907090E002804DB00F1E020A9
:1024C00080F80014704700F00F0000F1E02080F861
:1024D000141D704702E008C8121F08C1002AFAD173
:1024E00070477047002001E001C1121F002AFBD194
:1024F000704700002DE9FF4F8DB09B460F46044604
:10250000002606E025280BD05A460F999047641CF8
:10251000761C20780028F5D111B03046BDE8F08F48
:102520000025A8460122984900E0054314F8013F20
:10253000203B02FA03F00842F7D120782E2817D169
:1025400014F8010F45F004052A280ED06FF02F0271
:102550002078A0F1300109290AD808EB880102EBA4
:10256000410100EB0108641CF2E757F8048B641C7E
:1025700020786C280DD004DC4C2812D06A2811D1A8
:1025800004E074280DD07A280CD10AE045F4001537
:1025900007E0617845F48015814202D1641C05F59D
:1025A0008015641C2278692A45D008DC002AB3D043
:1025B000582A69D0632A10D0642A08D13BE0702AD7
:1025C00067D0732A13D0752A5CD0782A5CD0104665
:1025D0005A460F999047761CD3E017F8040B8DF8F4
:1025E000000000208DF80100E946012003E057F8C3
:1025F000049B4FF0FF3069074FF0000501D40AE05B
:102600006D1C45450DDA8542FADB19F805100029E5
:10261000F6D106E06D1C8542FCDB19F80510002997
:10262000F8D12E4404E019F8010B5A460F9990474F
:102630006D1EF8D2A5E00A200021CDE90801C5F3FE
:10264000025002280DD001CFC117031E71F1000303
:102650000DDA4FF0000CD0EB0C006CEB01012D23D8
:1026600008E0FF1D27F00707F7E80201EDE72B055B
:1026700004D52B238DF8283001233BE0EB0739D01C
:102680002023F7E70A2000E010200021CDE908010F
:1026900007E01020002145F00405CDE908014FF0C6
:1026A0000808C5F3025002280FD001CF00214FF0D7
:1026B000000A2B071FD5702A0DD0DDE908C38CF066
:1026C000100C5CEA030C0CD015E0FF1D27F0070787
:1026D000F7E80201EBE740228DF828204FF0010ACD
:1026E0000BE050EA010306D030238DF828308DF836
:1026F000292002239A46582A04D024A20DF1200949
:102700000B9209E026A2F9E7DDE90823FDF760FD59
:102710000B9B9B5C09F8013D50EA0102F4D1ADEB43
:10272000090020300890680701D44FF0010808998B
:10273000884502DDA8EB010000E00020804600256E
:1027400006E00AA85A46405D0F9990476D1C761C1A
:102750005545F6DB04E030205A460F999047761C29
:10276000B8F10001A8F10108F5DC05E019F8010B4A
:102770005A460F999047761C0899481E08900029E0
:10278000F4DC641CC5E60000092801003031323356
:10279000343536373839616263646566000000009D
:1027A0003031323334353637383941424344454687
:1027B0000000000070B54FF0E02300215C6900EBE1
:1027C000C0009A69C50098699042FCD002D2A2EB81
:1027D000000202E0A4EB0006324411440246A94282
:1027E000F1D370BD13B54FF6FF730122694602485D
:1027F000FEF782FB00981CBD64010020FDF77CFE03
:10280000FEF7CEFEFEF7D2FBFEF7B8FDFEF7DAFCD0
:10281000FEF722FDFEF772FDFEF792FC10A0FFF717
:1028200039FEFEF72DFE11280ED2DFE800F0130965
:102830001111111111111111111111111111110099
:1028400001210BA0FFF726FE6420FDF72FFDE5E731
:102850000221F6E70520FEF7AFFD0146F1E7000093
:102860002F722F6E203131202F722F6E000000004A
:1028700025630000000000000000000001020304C6
:10288000060708090000000001020304AC28000844
:102890000000002038000000D4240008E4280008CC
:1028A0003800002050070000E42400080142000026
:1028B00001000200030004000500060007000800F4
:1028C00009000A000B000C000D000E000F001000A4
:1028D0000100000010000000000000000024F400CF
:0428E00000000000F4
:0400000508000131BD
:00000001FF
