:020000040800F2
:10000000880A0020450100088F1400086F100008BE
:100010008D140008E5020008F51900080000000032
:10002000000000000000000000000000731600083F
:10003000E7020008000000007116000875160008AD
:100040005F0100085F0100085F0100085F01000810
:100050005F0100085F0100085F0100085F01000800
:100060005F0100085F010008E90200085F01000865
:100070005F0100085F0100085F0100085F010008E0
:100080005F0100085F0100085F0100085F010008D0
:100090005F0100085F0100085F0100085F010008C0
:1000A0005F0100085F0100085F0100085F010008B0
:1000B0005F0100085F0100085F0100085F010008A0
:1000C0005F0100085F0100085F0100085F01000890
:1000D0005F0100085F0100085F0100085F01000880
:1000E0005F0100085F0100085F0100085F01000870
:1000F0005F0100085F0100085F0100085F01000860
:100100005F0100085F0100085F0100085F0100084F
:100110005F0100085F0100085F0100085F0100083F
:100120005F0100085F0100085F0100085F0100082F
:10013000DFF80CD000F086F800480047354B000887
:10014000880A00200648804706480047FEE7FEE789
:10015000FEE7FEE7FEE7FEE7FEE7FEE7FEE7FEE777
:10016000C716000831010008202A04DB203A21FAD2
:1001700002F00021704721FA02F3D040C2F12002C0
:10018000914008431946704740EA01039B0703D09A
:1001900009E008C9121F08C0042AFAD203E011F8C6
:1001A000013B00F8013B521EF9D27047D2B201E088
:1001B00000F8012B491EFBD270470022F6E710B56C
:1001C00013460A4604461946FFF7F0FF204610BDC5
:1001D000034611F8012B00F8012B002AF9D118462B
:1001E00070472DE9F05F0546002092469B46884601
:1001F0000646814640241BE02846414647462246A3
:10020000FFF7B2FF53465A46C01A914110D3114628
:100210001846224600F028F82D1A67EB01084F46D1
:1002200022460120002100F01FF817EB00094E4183
:10023000201EA4F10104DFDC484631462A4643462D
:10024000BDE8F09F064C074D06E0E06840F0010372
:1002500094E8070098471034AC42F6D3FFF76CFFE0
:100260006C5100088C510008202A04DB203A00FA67
:1002700002F1002070479140C2F1200320FA03F3FD
:1002800019439040704770B58D1810F8014B14F069
:10029000030201D110F8012B231106D110F8013B04
:1002A00003E010F8016B01F8016B521EF9D1ABB1FC
:1002B00010F8012B04F00C048A1A0C2C03D0A2EBCA
:1002C00084129B1C08E010F8014BA2EB0422F8E713
:1002D00012F8014B01F8014B5B1EF9D5A942D4D3AA
:1002E000002070BDFEE77047102000F031B8704765
:1002F00070B5044600F046F90546601C02D004487B
:100300000078044400F03EF9401BA042FAD370BDCF
:100310002C03002010B50949094801F09FFD07484A
:10032000018908A004F06AF84620FFF7E1FFBDE864
:1003300010400021024801F09DBB00006C06002027
:10034000A8040020643A20253364206D6D0D0A0056
:10035000044910B50A68024202D00860FFF7DAFFCC
:1003600010BD0000140401402DE9F84FDFF8C891DA
:10037000002409F1040A0AF1040B23460F270BF1AC
:10038000040ED1E00125A54006EA0502AA4276D175
:10039000DFF8A8C14E68A6EB0C0866452BD00DDC33
:1003A000032E34D005DC36B3012E19D0022E2FD106
:1003B0001BE0112E16D0122E2AD119E0B8F5881F95
:1003C00019D006DCB8F5803F15D0B8F5801F1FD1D5
:1003D00011E0B8F5001F0ED0B8F5041F18D10AE0DF
:1003E000CB6815E0CB681B1D12E0CB6808330FE02B
:1003F000CB680C330CE08B682BB1012B4FF008035A
:1004000003D0456104E0042302E0056100E000231D
:10041000FF2A01D8064601E000F104064FEA8405F0
:1004200001D9A5F12005D6F8008007FA05FC28EAD5
:100430000C0803FA05F548EA0508C6F800804D687F
:10044000ED0070D53E4DAE6946F00106AE61AD6976
:1004500024F0030605F0010500953A4D06EB050C66
:10046000DCF80850A607360F07FA06F825EA080553
:10047000DFF8D480404503D14FF0000825E052E07A
:10048000DFF8C880404502D14FF001081DE0DFF8D9
:10049000C080404502D14FF0020816E0DFF8B4807A
:1004A000404502D14FF003080FE0DFF8AC80404533
:1004B00002D14FF0040808E0DFF8A080404502D1E7
:1004C0004FF0050801E04FF0060808FA06F848EA80
:1004D0000508CCF808804D68D9F80060ED034D465A
:1004E00001D5164300E096432E604D68DAF80060AF
:1004F000AD03554601D5164300E096432E604D6886
:10050000DBF80060ED025D4601D5164300E096433E
:100510002E604D68DEF80060AD02754601D51643C9
:1005200000E096432E60641C0A681646E2407FF4A1
:1005300029AFBDE8F88F0000000401400000111051
:10054000001002400000014000080140000C014082
:10055000001001400014014000180140001C01403F
:100560008068084000D001207047C26821EA020379
:100570000A4043EA0241016170470AB101617047D4
:100580000904FBE701488068704700002C03002045
:100590000248816802781144816070472C03002072
:1005A000074810B5016841F010010160032000F018
:1005B00075F8002000F006F800F024F8002010BDC7
:1005C0000020024070B50D4D04464FF47A71287832
:1005D000B1FBF0F00A490968B1FBF0F000F0ECFA69
:1005E00048B9102C07D200222146501E00F036F8E0
:1005F00000206C6070BD012070BD00002C03002045
:100600006C0000200C4808B5816941F0010181614E
:10061000816901F001010091C16941F08051C1611E
:10062000C06900F0805000900448416821F0E0610A
:1006300041F00071416008BD00100240000001401F
:10064000002809DB00F01F020121914040098000D1
:1006500000F1E020C0F8001170470000F0B40E4B2C
:100660001B680C46C3F30223C3F10705042D00D910
:100670000425191D072901D2002300E0DB1E0126F5
:1006800006FA05F1491E214099409E40761E16400B
:100690003143F0BC03F0C2BE0CED00E0064900F0AF
:1006A000070208684FF6FF03184040EA0220034A99
:1006B00010430860704700000CED00E00000FA05F0
:1006C0002DE9F0470F46050061D0434E306800F039
:1006D0000700B84209D2306820F007003843306084
:1006E000306800F00700B84251D128683B4C8107C0
:1006F00012D5400703D5606840F4E0606060287858
:10070000000703D5606840F4605060606068A968C5
:1007100020F0F000084360602878C00728D068689F
:10072000012810D02168022810D0890700292EDA6C
:10073000616821F0030101436160FFF723FF8046F8
:1007400041F288390DE021688903EFE78901EDE77F
:10075000FFF718FFA0EB0801494502D90320BDE8C7
:10076000F0876068696800F00C00B0EB810FEFD192
:10077000306800F00700B8420BD9306820F007005D
:1007800038433060306800F00700B84201D00120E3
:10079000E5E72878400705D56068E96820F4E0605F
:1007A000084360602878000706D56068296920F44E
:1007B000605040EAC100606000F038F86168084AA3
:1007C000C1F30311515CC84006490860064800683F
:1007D000FFF7F8FE0020C2E70020024000100240B0
:1007E000545100086C0000203003002004480549E3
:1007F00000684968044AC1F30221515CC84070474F
:100800006C000020001002406451000804480549B3
:1008100000684968044AC1F3C221515CC84070476E
:100820006C000020001002406451000812A185B045
:100830000FC98DE80F0014A0144A00680490516895
:10084000134801F00C03042B10D0082B0ED1C1F378
:100850008343C9031DF803000AD5516804AAC1F3F4
:100860004041515C0A4A5043B0FBF1F005B070477B
:1008700008494843FAE7000002030405060708098F
:100880000A0B0C0D0E0F10100102000000100240A8
:1008900000127A0000093D002DE9F84F040070D0E5
:1008A0002078C04DC00749D06868C0F38100012896
:1008B00007D06868C0F38100022809D16868C003C6
:1008C00006D52868800339D560680028E7D035E070
:1008D0006068B0F5803F0BD010B1B0F5A02F11D0FB
:1008E000286820F480302860286820F4802002E006
:1008F000286840F480302860606890B1FFF742FEBD
:1009000006460AE0286840F480202860F0E700BF2F
:10091000FFF738FE801B642873D828688003F7D55A
:100920000CE0FFF72FFE064605E000BFFFF72AFEAA
:10093000801B6428F0D828688003F7D420789A4E6A
:1009400080074FF001094FF0000839D5686810F0B2
:100950000C0F07D06868C0F38100022809D16868CD
:10096000C00306D42868800714D52069012808D15F
:1009700010E02069B0B1C6F80090FFF703FE07460B
:1009800005E00AE1FFF7FEFDC01B0228C4D8286875
:100990008007F7D52868616920F0F80040EAC100B7
:1009A00028600DE0C6F80080FFF7ECFD074604E084
:1009B000FFF7E8FDC01B022823D828688007F7D47A
:1009C000207800072CD57948A169D9B1C0F80090EA
:1009D000FFF7D8FD074604E0FFF7D4FDC01B02284F
:1009E0000FD8686A8007F7D571484FF4FA5100684C
:1009F000B0FBF1F0009000BF0098411E0091FAD2C8
:100A00000EE080E0C0F80080FFF7BCFD074604E080
:100A1000FFF7B8FDC01B022875D8686A8007F7D4B5
:100A20002078400760D5E8690027C00008D4E8694D
:100A300040F08050E861E869012700F080500090A4
:100A40005C480168C90513D40168834641F480718C
:100A50000160FFF797FD824606E000BFFFF792FDB9
:100A6000A0EB0A0064284ED8DBF80000C005F5D5DD
:100A7000E06801280AD008B1052813D0286A20F0C0
:100A800001002862286A20F0040002E0286A40F091
:100A900001002862E06841F2883B98B1FFF772FDDF
:100AA00082460BE0286A40F004002862EEE700BFAF
:100AB000FFF768FDA0EB0A0159455AD8286A80075C
:100AC000F6D50CE0FFF75EFD824605E0FFF75AFD24
:100AD000A0EB0A0159454CD8286A8007F6D41FB10B
:100AE000E86920F08050E861E06988B36968C1F383
:100AF0008101022944D00228C6F8608004D0FFF7A3
:100B000041FD044638E034E0FFF73CFD074604E0D1
:100B1000FFF738FDC01B02282BD828688001F7D4C6
:100B2000206AB0F5803F05D16868A16820F40030E4
:100B300008436860D4E908010843696821F4741126
:100B400008436860C6F86090FFF71CFD044606E0A5
:100B500025E000BFFFF716FD001B022809D8286812
:100B60008001F7D51BE000BFFFF70CFD001B02283A
:100B700002D90320BDE8F88F28688001F4D40EE084
:100B80000128F7D06868226A00F48031914204D1CC
:100B9000616A00F47010884201D00120EAE7002069
:100BA000E8E7000000100240000042428004424298
:100BB0006C0000200070004010B5401EB0F1807F36
:100BC00001D3012010BD4FF0E02460610F216017B8
:100BD00003F024FC0020A06107202061002010BD4C
:100BE00070B590F83C20012A2CD0012480F83C40BC
:100BF000022280F83D2003685A689D6822F0700642
:100C00000A6832435A60104B02689A420ED00F4B6A
:100C10009A420BD0B2F1804F08D00D4B9A4205D0CA
:100C20000C4B9A4202D00C4B9A4204D1496825F0F1
:100C300080031943916080F83D40002180F83C100A
:100C4000084670BD022070BD002C014000340140F8
:100C50000004004000080040000C004030B585B0A2
:100C6000002100910191029103910268324903240D
:100C700002253248B2F1804F24D0314B9A422DD117
:100C80008A6942F004028A618A6902F004020492CD
:100C90008A6942F008028A618969039401F00801B7
:100CA0000491C021CDE900156946FFF75DFB0120E5
:100CB000CDE9000523486946039400BFFFF754FBC4
:100CC00005B030BD8A6942F004028A618969CDE9C4
:100CD000004501F00401CDE903412AE01A4B9A4294
:100CE00018D1886940F0200088618869694600F061
:100CF000200004904FF47040CDE9000503941348A0
:100D0000FFF732FB1248416841F0E06141F4805145
:100D10004160D5E70F4B9A42D2D18A6942F0040272
:100D20008A618969039401F0040104910C21CDE9E1
:100D300000156946C2E700000010024000080140AB
:100D400000040040000C0140000800400014014075
:100D500000000140000C004070B5044690F83C00D3
:100D60000D4601280AD0012084F83C0042B1042A33
:100D700018D0082A2AD00C2A4DD139E0022070BDA3
:100D8000206800F0E7FC2068816941F0080181617A
:100D90002068816921F004018161206881692A69E4
:100DA000114311E0206800F005FD2068816941F4DD
:100DB000006181612068816921F48061816120681E
:100DC00081692A6941EA0221816124E0206800F0FA
:100DD00027FD2068C16941F00801C1612068C1692F
:100DE00021F00401C1612068C1692A69114311E041
:100DF000206800F049FD2068C16941F40061C161CB
:100E00002068C16921F48061C1612068C1692A69D3
:100E100041EA0221C161002084F83C0070BD10B598
:100E2000040003D094F83D0010B107E0012010BD8C
:100E3000002084F83C00204600F01EF8022084F8D0
:100E40003D00211D206800F03FFC012084F8460091
:100E500084F83E0084F83F0084F8400084F84100A4
:100E600084F8420084F8430084F8440084F8450084
:100E700084F83D00002010BD08B501681648B1F1A6
:100E8000804F0BD0154A914210D1C16941F0020147
:100E9000C161C06900F00200009008BDC16941F065
:100EA0000101C161C06900F00100F5E70C4A9142FF
:100EB00007D1C16941F00401C161C06900F00400BB
:100EC000EAE7084A9142E8D1C16941F00801C161ED
:100ED000C06900F00800DFE7001002400004004095
:100EE00000080040000C004070B5040004D094F8E5
:100EF0003900002510B106E0012070BD84F838509B
:100F0000204600F023F8242084F839002068C168C6
:100F100021F40051C160204600F0DEFC2068016928
:100F200021F4904101612068416921F02A01416169
:100F30002068C16841F40051C160E563202084F855
:100F4000390084F83A00002070BD000030B585B04B
:100F50000024009401940294039400681449884288
:100F600024D11448816941F480418161816901F48F
:100F700080410491816941F00401816180690E4DD5
:100F800000F0040004904FF40070009002200190E3
:100F90000320039069462846FFF7E6F92815CDE9B6
:100FA0000004694628460294FFF7DEF905B030BD1B
:100FB0000038014000100240000801402DE9F843CC
:100FC000044690F839001F4616460D4620284CD19D
:100FD000C5B1BEB194F83800012846D0012084F88C
:100FE00038004FF00008C4F83C80212084F8390014
:100FF000FFF7C8FAA6848146E684A068B0F5805F52
:1010000003D004E00120BDE8F883206928B12E4612
:101010005FF0000584F838800EE00026FAE78021B2
:10102000204600F0B5FCA0B9AEB116F8010B21685E
:101030004860E08C401EE084E08C4B464FF000029C
:1010400000970028EBD14FF04001204600F0A0FCB3
:1010500030B10320D7E735F8020BC0F30800E6E70C
:10106000202084F839000020CDE70220CBE7FEE7FE
:101070002DE9F04F85B000265F4800960196029654
:101080000396816941F080018161816901F08001ED
:101090000491816941F004018161816901F00401D9
:1010A0000491816941F008018161816901F00801C1
:1010B0000491816941F040018161816901F0400141
:1010C0000491816941F020018161816901F0200171
:1010D0000491816941F010018161816901F0100181
:1010E0000491816941F4807181618069DFF80CB1FC
:1010F00000F48070049000221E215846FFF73DFA4C
:101100004FF46058002241463D48FFF736FA4FF44D
:10111000E059002249463B48FFF72FFA0022FF2101
:101120003948FFF72AFA4FF45C4A00225146374803
:10113000FFF723FA002208213548FFF71EFA0122A3
:1011400020213348FFF719FA1E2001240225032726
:101150008DE8B10069465846FFF706F901AACDF8B7
:10116000008082E8B00069462548FFF7FDF8A0033B
:10117000CDE90006694602952148FFF7F5F801AA76
:10118000CDF8009082E8B00069461E48FFF7ECF801
:10119000FF208DE8B10069461B48FFF7E5F81D4EBA
:1011A0004FF40850CDE90006694602941748FFF74E
:1011B000DBF801AACDF800A082E8B0006946134828
:1011C000FFF7D2F828208DE8B10069461048FFF7F4
:1011D000CBF81020CDE90006694602940C48FFF7D1
:1011E000C3F8002202210A20FFF738FA0A20FFF78D
:1011F00027FA05B0BDE8F08F00100240001C014046
:10120000001801400010014000140140002001407E
:10121000000C01400000211010B58AB00024079492
:101220001C2168460894FEF7C8FF1B484FF0804118
:1012300001604721C0E9011444F61F61C0E90314AD
:101240008461FFF7ECFD08B1FFF751F8079407A997
:1012500011480894FFF7C4FC08B1FFF748F8602074
:1012600000904FF47A70CDE90104002269460A48E3
:101270000494FFF771FD08B1FFF739F804226946BD
:101280000548FFF769FD08B1FFF731F80248FFF79D
:10129000E5FC0AB010BD00004803002010B58AB07C
:1012A000002407941C2168460894FEF786FF1F4817
:1012B0001D4901604721C0E9011444F61F61C0E9DE
:1012C00003148461FFF7ABFD08B1FFF710F8079432
:1012D00007A916480894FFF783FC08B1FFF707F841
:1012E000602000904FF47A70CDE901040022694635
:1012F0000E480494FFF730FD08B1FEF7F8FF042212
:1013000069460A48FFF728FD08B1FEF7F0FF0822FA
:1013100069460648FFF720FD08B1FEF7E8FF0348DD
:10132000FFF79CFC0AB010BD0004004090030020B1
:1013300010B58AB0002407941C2168460894FEF773
:101340003CFF2348214901604721C0E9011441F2D3
:101350008731C0E903148461FFF761FD08B1FEF72E
:10136000C6FF079407A91A480894FFF739FC08B18B
:10137000FEF7BDFF6020009040F6B830CDE90104D3
:101380000022694612480494FFF7E6FC08B1FEF714
:10139000AEFF042269460E48FFF7DEFC08B1FEF7F7
:1013A000A6FF082269460A48FFF7D6FC08B1FEF7F7
:1013B0009EFF0C2269460648FFF7CEFC08B1FEF7F7
:1013C00096FF0348FFF74AFC0AB010BD0008004032
:1013D000D803002010B58AB0002407941C21684669
:1013E0000894FEF7EAFE1A48184901604721C0E94F
:1013F00001140921C0E903148461FFF710FD08B14D
:10140000FEF775FF079407A911480894FFF7E8FB5A
:1014100008B1FEF76CFF602000900520CDE90104C3
:10142000082269460A480494FFF796FC08B1FEF7C3
:101430005EFF0C2269460648FFF78EFC08B1FEF7F6
:1014400056FF0348FFF70AFC0AB010BD000C00402D
:10145000200400200C4810B50A4901604FF4E13126
:101460004160002181600C22C160C0E904128161E9
:10147000C161FFF739FD002803D0BDE81040FEF739
:1014800036BF10BD0038014068040020FEE77047F9
:101490000149085C704700003C030020002004491B
:1014A00002460A54401CC0B20928FAD37047000013
:1014B0003C0300202DE9F84F80460120ADF80000E4
:1014C000234F00217970ADF800004FF40059214CF2
:1014D000C5024FF4804A4FF6FF7630E0BDF80000B9
:1014E00010EA080F01D0012200E000224946204600
:1014F000FFF743F8012229462046FFF73EF8052072
:1015000003F0DDF9002229462046FFF736F80520D2
:1015100003F0D5F9012229462046FFF72EF851465F
:101520002046FFF71DF820B17878BDF80010084379
:101530007870BDF8000006EA4000ADF80000BDF884
:101540000000FF28CAD9BDE8F84F102003F0B7B952
:101550003C0300200018014070B5FFF79FFF00F02A
:101560001BF80B480B4BB0F803100A481B1D4180B9
:101570000020012413F8105000F101006D1E04FA40
:1015800005F20A42C0B202D01028F3D3002070BD89
:101590003C030020000000202DE9FC4700208DF8CE
:1015A00000000124ADF804402E4E02464FF4805A4C
:1015B00051463046FEF7E1FF2B4D2878FFF77AFFC2
:1015C0006878FFF777FF02208DF80000A0463446C8
:1015D00085024FF48049254F4FF6FF7636E04046AE
:1015E00026E0012229462046FEF7C7FF052003F02A
:1015F00066F9002229462046FEF7BFFF052003F0CA
:101600005EF9012229462046FEF7B7FF49462046EB
:10161000FEF7A6FF40B19DF80000BDF80410385C4D
:1016200008439DF800107854BDF8040006EA400015
:10163000ADF80400BDF80400FF28D2D9102003F053
:101640003EF99DF80000401C8DF800009DF8000058
:101650000928C4D302B051462046BDE8F047012214
:10166000FEF78BBF00180140000000203C03002063
:1016700070477047FEF78CBF30B58FB028216846A1
:10168000FEF79BFD14210AA8FEF797FD012108042F
:10169000CDE900100024029402250491CDE9075001
:1016A0004FF4E01009906846FFF7F6F80F20CDE9F7
:1016B0000A056802CDE90C4002210AA80E94FEF743
:1016C000FFFF0FB030BD7047F0B502681C4B1D4DD9
:1016D0001D4E1E4F1E4C4FF0804C984209D0A04228
:1016E00007D0604505D0A84203D0B04201D0B8422F
:1016F00004D122F0700E4A6842EA0E02984209D0E4
:10170000A04207D0604505D0A84203D0B04201D026
:10171000B84203D122F44075CA682A434D6922F0C9
:1017200080022A4302608A68C2620A688262984222
:1017300001D0A04201D10969016301214161F0BDDD
:10174000002C01400004004000080040000C004054
:1017500000340140F0B5026A22F001020262036A1D
:1017600042688469124E24F073050C682C4323F000
:1017700002058B682B430D4DA84201D0B04205D124
:1017800023F00807CB683B4323F00403A84201D0B1
:10179000B04205D14D6922F4407215438A692A434B
:1017A00042608461496841630362F0BD002C0140DE
:1017B00000340140F0B5026A22F010020262026AAF
:1017C000436884690D6824F4E64444EA05248D687E
:1017D00022F0200242EA05120F4D104EA84201D01D
:1017E000B04206D1CF6822F0800242EA071222F00E
:1017F0004002A84201D0B04207D14D6923F44063B2
:1018000043EA85038D6943EA85034360846149683F
:1018100081630262F0BD0000002C014000340140F1
:10182000F0B5026A22F480720262026A4368C469F7
:1018300022F4007224F073050C68124E2C438D685C
:1018400042EA05220E4DA84201D0B04206D1CF682F
:1018500022F4006242EA072222F48062A84201D008
:10186000B04207D14D6923F4405343EA05138D6913
:1018700043EA05134360C4614968C1630262F0BD75
:10188000002C01400034014030B5026A22F480523D
:101890000262046A4268C3690D6823F4E64343EABE
:1018A00005238D6824F4005444EA0534084DA84209
:1018B00002D0084DA84204D14D6922F4804242EA88
:1018C00085124260C36149680164046230BD000052
:1018D000002C01400034014070B5044600680169E5
:1018E000E26821F44051114301612169A068084375
:1018F000616908432168CA6841F20C639A43024354
:10190000CA6020684169A26921F4407111434161B4
:101910001E492068884202D1FEF778FF01E0FEF7F9
:1019200065FF00EBC00101EB0012606864218000DC
:10193000B2FBF0F3B3FBF1F36FF018067343B2FBA5
:10194000F0F5B2FBF0F605EB8305322303EB05154A
:10195000B5FBF1F5B6FBF1F605F0F00505EB061564
:10196000B2FBF0F6B2FBF0F0B0FBF1F06FF0180252
:10197000504306EB800003EB0010B0FBF1F0216850
:1019800000F00F002844886070BD0000003801405E
:101990002DE9F041984617460E460446069D1DE087
:1019A000681C1BD02DB1FEF7EDFDA0EB0800A8428E
:1019B00014D92068C16821F4D071C16020684169E0
:1019C00021F001014161202084F8390084F83A00B7
:1019D000002084F838000320BDE8F081206800680A
:1019E00036EA000004D00020B842D9D00020F3E746
:1019F0000120F9E7FEE700007CB50446002094F8DA
:101A0000DA200D46012A03D0022A01D0032A14D17C
:101A100001AB6A460121204600F099F9009A4FF483
:101A20007F018A4202D8019A8A4206D9002804D14D
:101A300025B10F49204601F09FFE7CBD0422FF2105
:101A4000204600F087FE054600227021204600F067
:101A500081FE05430022FF21204600F07BFE054366
:101A600000228021204600F075FE28437CBD000046
:101A700063010020F8B50646002401220B21304600
:101A800000F068FE074600220B21304600F062FE9F
:101A900040EA07056A461321304600F01AFB641C31
:101AA0009DF800102843E4B2490704D0032C04D267
:101AB0000028E2D0F8BD032CFCD36FF00B00F8BD7A
:101AC000F0B591B004460123FE22892100F021FEE9
:101AD00020B900228821204600F03CFE002584F831
:101AE000F0504FF47A70A4F852014FF4C870A4F883
:101AF00054015748C4F8580156482562C4F8D40028
:101B00006946204600F0AAF8060009D18DF8005079
:101B10008DF801504022694604F11000FEF734FBB5
:101B20006420A4F834014FF46170A4F836014FF436
:101B3000FA70A4F838014FF42060A4F83C010127A2
:101B400084F850713A468021204600F003FE064397
:101B50000122FF21204600F0FDFD06430022114630
:101B6000204600F0F7FD064310AA9121204600F020
:101B7000B0FA06439DF8400084F83A0101220021A2
:101B8000204600F0E7FD06430022FF21204600F03A
:101B9000E1FD064300228021204600F0DBFD3043BA
:101BA0000026002852D1B1B20122204600F09EFB4F
:101BB000761C062EF5DB002848D1002202212046A3
:101BC00000F094FB002841D100220321204600F0C0
:101BD0008DFB00283AD100220421204600F086FB2C
:101BE000002833D100220521204600F07FFB002889
:101BF0002CD14FF490120021204600F0B8FB0028B1
:101C000024D14FF480420121204600F0B0FB00288F
:101C10001CD14FF40C120221204600F0A8FB002832
:101C200014D100220321204600F0A1FB00280DD191
:101C3000FF2084F8300102460121204600F08AFD91
:101C400084F83271002801D184F8155111B0F0BD2B
:101C5000856B0100A470090000F0B8BF70B506469E
:101C60000C46007C01F8080B304600F044F80028D0
:101C700033D1207304F11001304600F0DBF9002865
:101C80002BD104F11401304600F0E4F8002824D1EF
:101C9000002501E0002820D104EB8502A9B23046DE
:101CA000243200F07BF8002817D16219A9B230461F
:101CB000183200F066F86D1C062DEBDB00280CD105
:101CC00004F13C01304600F09AF9002805D1211DAD
:101CD0003046BDE8704000F0BBB870BD10B50C4692
:101CE0000A46092100F0F5F9002803D1217801F016
:101CF0000101217010BD3EB50C46054602AAF8212F
:101D000000F0FDF900280ED16A460421284600F0B3
:101D1000EBF9002807D1BDF8081029B1009AB2FBF1
:101D2000F1F12160A9613EBD2168FBE738B50C46A1
:101D30006A46132100F0CDF99DF8001001F007026A
:101D400011F0180F226001D06FF0050038BDF8B512
:101D500015461C4606466A460E2100F0D0F9BDF82D
:101D600000100905C9082960002809D16A460C211C
:101D7000304600F0C4F9BDF800100905C90821601B
:101D8000F8BD03460020062902D3001F002102E00F
:101D9000194491F82810117070470000F8B50446F6
:101DA0000020154606292ED2DFE801F00305191B95
:101DB0001D1D646B25E06A464421204600F09FF912
:101DC000002803D1BDF800104FEA412606D1EEB13C
:101DD0002E604FF00101A66384F82910F8BDE46B72
:101DE0000FE0246C0DE06A464FF06401204600F0DD
:101DF00086F9002804D100BFBDF800104FEA412445
:101E0000ECD12C60F8BD6FF00300F8BDA16B296028
:101E10004FF00001E0E77CB50C4690F8DA100025A1
:101E2000012604290AD06A46142100F052F900283C
:101E30000BD19DF80010C90706D007E001A9FFF7F4
:101E400075FF0199042901D025707CBD26707CBDE9
:101E500001F0A8B901F008BA01F020BAF0B58DB0D0
:101E60000C4605460C2302AA142100F053F9060083
:101E70007ED10021A17521609DF813009DF81220EC
:101E8000616000EB02209DF80F209DF80E304FF4AA
:101E90007A7E02EB03221204D209E2609DF811302F
:101EA0009DF8106080B203EB06231B04DB0923615D
:101EB0009DF80B309DF80A6003EB06239BB2A382CA
:101EC000B5F852619DF8087095F831C176451FD07C
:101ED000464306F5FA7696FBFEF02E8C95F81CE04C
:101EE00080B2B6B2BEF1000F12D05E43B2EB262F25
:101EF00008D1BCF1000F02D042F2B82008E048F649
:101F0000E0200DE05043A2EB2626B0FBF6F080B2B5
:101F1000BCF1000F04D0810821818001E07501E04F
:101F20002081E1750CA8CDE900403946284601F032
:101F3000DDFA060025D19DF83000207605F150012C
:101F40001C220D4605A8FEF71FF92089ADF81C00DC
:101F5000E07D8DF82B006089ADF81E00606806906A
:101F6000E068089020690990A08AADF8280000E098
:101F700007E0207E8DF82C001C2205A92846FEF7DC
:101F800003F90DB03046F0BD38B5054600200C46CB
:101F90008DF800006A460121284600F09AF80028D2
:101FA0002AD123469DF800200021284602F0C2FED7
:101FB000002821D1A31C9DF800200121284602F011
:101FC000B9FE002818D1631C9DF800200221284684
:101FD00002F0B0FE00280FD1E31C9DF80020032181
:101FE000284602F0A7FE002806D1231D9DF80020F8
:101FF0000421284602F09EFE38BD01F08FBB38B5A3
:102000000C4605466A46012100F063F800280BD112
:102010009DF8001085F83011090601D5012100E076
:102020000021217085F84C1038BD02460020127F37
:102030000A70704738B50D4604466A46202100F004
:102040005EF8002807D1BDF8001029B1C900296049
:1020500021620121217738BD216A29600021F9E739
:10206000012301F030BC01F04EBC70B5047C054684
:1020700014B900F0FFF910B9284601F0CFFB50EA7F
:10208000040102D1032185F8321170BD70B50C46F0
:102090000546002100F051F8002810D12846FFF72E
:1020A000E4FF00280BD121462846FFF7D7FE002881
:1020B00005D12846BDE870400021FFF7DBBC70BDAC
:1020C00008B5002001460090491C0091FA29FBD375
:1020D00008BD10B5002490F85C0101F079FD08B14D
:1020E0006FF01304204610BD10B5002490F85C0179
:1020F00001F071FD08B16FF01304204610BD10B55A
:10210000002490F85C0101F087FD08B16FF0130422
:10211000204610BD10B50024402B00D3241F90F89A
:102120005C019BB201F06DFD08B16FF01304204615
:1021300010BD4A088A2100F00DBB02460020032989
:102140000BD003DC49B1012904D106E0142904D0E5
:10215000152902D06FF0070070471174704770B5F1
:102160001C46049E054611B16FF0090070BD142A8B
:1021700008D0152A0FD0052C6FD2DFE804F066686E
:102180006A6C6F002EB10122BDE87040842100F01E
:10219000E1BA1022F8E70122FF2100F0DBFA044641
:1021A00000221146284600F0D5FA04430022FF2100
:1021B000284600F0CFFA044301228021284600F08F
:1021C000C9FA044302228521284600F0C3FA0443D9
:1021D0000422FF21284600F0BDFA04430022CD214D
:1021E000284600F0B7FA04431122CC21284600F01B
:1021F000B1FA04430722FF21284600F0ABFA04435A
:102200000022BE21284600F0A5FA04430622FF2141
:10221000284600F09FFA04430922CC21284600F00A
:1022200099FA04430022FF21284600F093FA044360
:102230000122FF21284600F08DFA044300221146B6
:10224000284600F087FA204370BD002207E00122F3
:1022500005E0022203E0032201E017E004220A2144
:10226000284600F077FA0028EED196B11023EF222D
:102270008421284600F04DFA0028E5D185F8DA409F
:102280002846BDE870400021FFF7F4BB6FF00A005C
:1022900070BD0023EBE738B50C4605466A46F821C9
:1022A000FFF72DFF00280DD1BDF8000010B104FB91
:1022B00000F200E022460421284600F056FA0028E9
:1022C00000D1AC6138BD70B51C460546C2F34B4227
:1022D0000E2100F055FA002807D1C4F34B422846DE
:1022E000BDE870400C2100F04BBA70BD2DE9F04103
:1022F000044600200D461646071F034601460246C7
:10230000062D02D33846BDE8F08156B104EB8501B5
:102310004B6B0121062DF5D2DFE805F005080F1201
:1023200015180122F6E784F8281017E0C3F34F22AE
:102330004421204600F024FA0EE084F82A100DE033
:1023400084F82B100AE05300FE2201E01301EF2273
:102350006021204600F0DDF90028D4D1611926B1B2
:102360005FF0010281F82820CDE70022FAE770B57E
:1023700014460022431800EB810593F82830DBB1A6
:10238000C4F34F23062914D2DFE801F00305080A3D
:102390000C0C446310E01A46442105E0C4630BE0D2
:1023A000046409E01A46642100F0EAF9020003D04F
:1023B00003E06FF0030200E06C63104670BD01F0B3
:1023C00092BC2DE9F8430746002090460E468DF852
:1023D00000006A4601213846FFF77BFE05009DF8A4
:1023E000000004462ED1291FB8F1010F06D0052E9A
:1023F0002CD2DFE806F0191C1F222500052E25D25D
:10240000DFE806F00306090C0F0044F0100419E0A1
:1024100044F0280416E044F0040413E044F04004BF
:1024200010E044F080040DE004F0EF040AE004F052
:10243000D70407E004F0FB0404E004F0BF0401E06B
:1024400004F07F04844210D015B10EE00D460CE07C
:1024500022460121384600F07DF9050005D187F8B4
:10246000304138467969FFF7AAFF2846BDE8F8836E
:1024700001F0EDBCF8B501250646047C2A46802112
:1024800000F068F90122FF21304600F063F90022D4
:102490001146304600F05EF996F83A219121304617
:1024A00000F058F901220021304600F053F90022D3
:1024B000FF21304600F04EF900228021304600F026
:1024C00049F93CB10425012C26D0032C2FD06FF004
:1024D0000700F8BD01220021304600F03BF98DF8DD
:1024E00000500028F5D100244FF4FA6705E024B12C
:1024F0006A4600213046FFF7ECFD9DF80020641C81
:1025000025EA0201014304D0BC42E2D36FF0060089
:10251000F8BDBC42EBD3F9E718B901213046FFF70B
:102520006BFA022209E000BF86F83251F8BD18B9F3
:1025300001213046FFF760FA04220021304600F006
:1025400009F90028F0D0F8BD30B597B00446402115
:1025500001A8FDF732FE00258DF84450ADF850502B
:102560008DF8545001212046169500F087FB94F811
:10257000142194F81311012A06D802D1202903D876
:1025800008E03AB90C2905D915AA16A9204601F088
:10259000BAF902E0204601F007FC474900287DD146
:1025A00094F8500108B9D4F84C11204601F0E4F831
:1025B00000287ED100220423114620460095FFF713
:1025C000CEFD002875D10122FF21204600F0C2F87F
:1025D000054614AA84212046FFF791FD05430022F9
:1025E000FF21204600F0B6F8284362D1BDF8500024
:1025F00001A90001C4F8D4002046FFF72FFB0028F2
:1026000057D111A92046FFF769FB002851D19DF849
:10261000440084F83101402201A904F11000FDF7C3
:10262000B3FD11AA01212046FFF753FD002840D138
:102630009DF8440084F83001002211462046FFF73F
:10264000C0FE002835D1002202212046FFF7B9FE46
:1026500000282ED1032084F8320112AA002120463E
:10266000FFF7CBFC002824D19DF8480084F8E8004F
:1026700012AA01212046FFF7C0FC002819D19DF8BD
:10268000480084F8E00013AA0321204602F0CDF9A7
:1026900000280ED1139813AA042100E009E0C4F821
:1026A000E400204602F0C1F9002802D11399C4F8D1
:1026B000DC1017B030BD00007000002010B5002203
:1026C0000446114600F046F80122FF21204600F0A2
:1026D00041F800221146204600F03CF800229121EA
:1026E000204600F037F801220021204600F032F8A1
:1026F0000022FF21204600F02DF8002808D10320F9
:1027000084F832012046BDE810400021FFF774B97B
:1027100010BD2DE9F84390F85C6190461F4689464C
:1027200000246A46304601F053FA6FF0130508B1F1
:102730002C460CE09DF80020494602EA08023A4384
:102740008DF80020304601F092FC0028F0D12046A0
:10275000BDE8F88310B5002490F85C0101F087FC17
:1027600008B16FF01304204610BD10B5002490F896
:102770005C0101F082FC08B16FF01304204610BD2B
:1027800010B5002490F85C0101F093FC08B16FF0E3
:102790001304204610BD10B50024402B00D3241F85
:1027A00090F85C019BB201F079FC08B16FF0130462
:1027B000204610BD2DE9F047B0F854C1D0F85801BB
:1027C000DDE90A860CFB00F58035DDE908972C0A67
:1027D0004FF0000A04FB0CF4554652B1880200EB9E
:1027E0005200B0FBF2F000EB4000404300F5004027
:1027F000050C07F50040000C0622C01CB0FBF2F0EF
:1028000003FB09F303F50043190C4943C0EBC00077
:10281000B0F5803F01D31C4808E0FF1CB7FBF2F085
:10282000C0EBC00000F50040000C4043084400EB42
:102830005800B0FBF8F08003FE227F30B0FBF2F0CE
:1028400068434FF47A7100F5FA70B0FBF1F00001C3
:1028500000F5FA70B0FBF1F7402004F12001B1FB64
:10286000F0F000F073FF054627B104EB5700B0FB12
:10287000F7F000E0002000F069FF3560854200D9E4
:1028800030605046BDE8F0870000F0FF01EBC10169
:1028900040F277600902A1FB000170472DE9FF4F6C
:1028A00087B00446006A0690884608694FF47A713A
:1028B0004843000C0390D8F80C000590DFF8F8B1FD
:1028C0004FF4481604AA4146204600F002FF06AA2B
:1028D0004146204600F00BFF81464FF47A71049880
:1028E000069D484300F50040070C4D43B54200D912
:1028F0003546B9F1000074D1D4F8DC00019094F8A9
:10290000E06001463246204600F0DCF88246D4F80A
:10291000E4000090014694F8E820204600F0D2F848
:1029200001460320082E00D1022051444143C90230
:102930004FF47A7001F5FA71B1FBF0F140F2776271
:10294000514301F5FA71B1FBF0FA04988030010AA5
:1029500001FB0AF08030060A080204900FB14EB164
:1029600009E00999C1F800B0C4F840B10A98002103
:1029700001609CE001264FF44870029003984F4993
:102980000004B0FBF7F0884200D908464FF41671F6
:1029900000FB01F906EB4600800000F0D7FE400086
:1029A0000390B8F8081046486A424143380400EBE7
:1029B00042024FF47A7002F5FA72B2FBF0F2431061
:1029C00003EB0743B3FBF0F01202B2FBF0F0002878
:1029D00000DA404298F8182000021AB14FF480350E
:1029E0000FE065E041F25C22B1FBF2F1C0F580300E
:1029F000484300F50040000C00F58030400840439B
:102A0000850B4FF4487105FB01F000F50040010C07
:102A100009F50040000C49434043084400F096FE8D
:102A2000000464213230B0FBF1F10398B1FBF0F007
:102A300040F6B531484341F2883108444900B0FBC3
:102A4000F1F74FF47040874200D90746DDE90010E6
:102A500008444FF47A7800F5FA70B0FBF8F04FF4C0
:102A6000C81101EB5001B1FBF0F000F06FFE000265
:102A700000F5FA70B0FBF8F07F434043384400F0B3
:102A800065FE414648430EB1584500D9584609995C
:102A90000860C4F840010A98029B03908DE808067C
:102AA000DDE904122B462046FFF784FE81464846A6
:102AB0000BB0BDE8F08F0000AE878F02666666003F
:102AC0009A99060000B50B461146FFF7DFFE4FF45A
:102AD0007A7100F5FA70B0FBF1F04B4303EB500153
:102AE000B1FBF0F000BD00B50B461146FFF7CEFE7E
:102AF0004FF47A7100F5FA70B0FBF1F0434303F53F
:102B0000FA73B3FBF1F000BD2DE9F0410F46154615
:102B10000446022100F0B2F806000BD194F8F1004F
:102B200058B194F8F200387004F1F30105F1400057
:102B3000FDF74EFB3046BDE8F0810020387085F887
:102B40004000F7E70146C0B2090A8840401C7047C0
:102B50004000801CC0B27047F8B5064600228321B1
:102B6000FFF7F8FD040011D100254FF4FA676A461B
:102B700083213046FFF7ADFA04469DF8000020435C
:102B80000BD0BD4202D300BF6FF0060401228321A7
:102B90003046FFF7DFFD2043F8BD6D1CBD42E6D394
:102BA000F2E70022114648B1401E02E04008491CED
:102BB00089B2020AFAD161F31F2082B2104670472F
:102BC000FF2101EB5000C0B2704700007CB50C46FD
:102BD0000A46054601A9FFF797FF00282BD19DF86B
:102BE000040028B1222805D8202805D012A106E02B
:102BF00014A104E0272801D215A100E017A1204666
:102C0000FDF7E6FA1BA104F12000FDF7E1FA04F15B
:102C10006002C0212846FFF75CFA00280BD16A4603
:102C2000C2212846FFF755FA012104F8611F9DF8DB
:102C30000010090961707CBD564C35334C3058206A
:102C400054533100564C35334C30582054533000D7
:102C5000564C35334C30582054533200564C353393
:102C60004C305820455331206F72206C617465726E
:102C700000000000564C35334C3058002DE9F04F21
:102C800095B0002504460E954FF4C8500F95CDE938
:102C90000450129594F8F0600F46AB46AA46072EF2
:102CA0007ED0012280212046FFF754FD804601227C
:102CB000FF212046FFF74EFD40EA0805002211469D
:102CC0002046FFF747FD40EA05080622FF2120467F
:102CD000FFF740FD40EA080502AA83212046FFF7DE
:102CE000F8F940EA05089DF80800832140F0040245
:102CF0002046FFF72FFD40EA08050722FF21204666
:102D0000FFF728FD40EA0508012281212046FFF750
:102D100021FD40EA08052046FFF7D2F940EA050800
:102D2000012280212046FFF715FD40EA0805F8073B
:102D300055D0F00753D16B2294212046FFF70AFDAE
:102D400040EA05082046FFF707FF40EA080501AA08
:102D500090212046FFF7C8F940EA0508019824228F
:102D6000C0F30621C0F3C03B129194212046FFF727
:102D7000F1FC40EA08052046FFF7EEFE40EA0508B0
:102D800001AA90212046FFF7AFF940EA0805019813
:102D9000010E8DF82C10010C8DF82D10010A00E0A9
:102DA000FCE18DF82E108DF82F002522942120466D
:102DB000FFF7D0FC40EA05082046FFF7CDFE40EAC9
:102DC000080901AA90212046FFF78EF940EA09057B
:102DD0000198010E8DF83010000C8DF83100B80705
:102DE0007ED5B0077CD4022294212046FFF7B2FCA6
:102DF00040EA05082046FFF7AFFE40EA080513AA9F
:102E000090212046FFF765F940EA05087B229421CE
:102E10002046FFF79FFC40EA08052046FFF79CFE8E
:102E200040EA050810AA90212046FFF752F940EA2F
:102E30000805772294212046FFF78CFC40EA05081C
:102E40002046FFF789FE40EA080501AA90212046A6
:102E5000FFF74AF940EA050801987822410E8DF8FB
:102E60001810C0F386418DF81910C0F3C6218DF8F3
:102E70001A10C0F306110007400E8DF81B108DF8D4
:102E8000080094212046FFF765FC40EA080520462B
:102E9000FFF762FE40EA050801AA90212046FFF7ED
:102EA00023F940EA08059DF80810019801EB5071DC
:102EB0008DF81C10C0F386518DF81D10C0F3C6317B
:102EC0008DF81E10C0F306218DF81F10C0F34601C7
:102ED000C007400E8DF820108DF80800792200E020
:102EE00055E094212046FFF735FC40EA05082046CE
:102EF000FFF732FE40EA080501AA90212046FFF7BD
:102F0000F3F840EA05089DF8081001987A2201EBD1
:102F100090618DF82110C0F3C6418DF82210C0F3E6
:102F200006318DF82310C0F34611C006400E8DF80F
:102F300024108DF8080094212046FFF70BFC40EA8E
:102F400008052046FFF708FE40EA050801AA90217F
:102F50002046FFF7C9F840EA08059DF808100198D7
:102F600001EB90718DF82510C0F3C6518DF8261035
:102F7000C0F306418DF82710C0F346218DF82810C4
:102F8000C0F386008DF8290000208DF82A0078070C
:102F90007ED570077CD47B2294212046FFF7DAFB94
:102FA00040EA05082046FFF7D7FD40EA08050EAACB
:102FB00090212046FFF798F840EA05087C229421EA
:102FC0002046FFF7C7FB40EA08092046FFF7C4FD8B
:102FD00040EA09050FAA90212046FFF785F840EA4C
:102FE0000508732294212046FFF7B4FB40EA080548
:102FF0002046FFF7B1FD40EA050801AA90212046CE
:10300000FFF772F840EA08050198742200064FEABB
:10301000104994212046FFF79DFB40EA0508204611
:10302000FFF79AFD40EA080501AA90212046FFF724
:103030005BF8019940EA050849EA1160049075229D
:1030400094212046FFF786FB40EA08052046FFF75B
:1030500083FD40EA050901AA90212046FFF744F8C4
:1030600040EA09080198762200064FEA10499421A7
:103070002046FFF76FFB40EA08052046FFF76CFD8E
:1030800040EA050801AA90212046FFF72DF800E04C
:1030900004E0019940EA080549EA116A0022812109
:1030A0002046FFF757FB40EA05080622FF2120468D
:1030B000FFF750FB40EA080502AA83212046FFF7EC
:1030C00008F840EA05089DF80800832100F0FB029B
:1030D0002046FFF73FFB40EA08050122FF2120467A
:1030E000FFF738FB40EA0508012200212046FFF7E0
:1030F00031FB40EA08050022FF212046FFF72AFBAA
:1031000040EA0508002280212046FFF723FB50EA11
:10311000080543D1F8070FD0F0070DD1129884F8B5
:10312000130184F814B100200BA923180A5C401C79
:1031300083F82A210628F8DBB8070ED5B0070CD48F
:103140009DF84C0084F8F1009DF8400084F8F200EE
:1031500004F1F30006A9FDF73BF8780719D57007CD
:1031600017D40E98C4F818010F98C4F81C010498DD
:103170004002C4F820010020BAF1000F08D00599E0
:10318000AAEB01004FF47A1148430014404200B208
:10319000E0603E438DF8086084F8F06015B0284682
:1031A000BDE8F08F30B585B005464FF4FA60029067
:1031B0000020039040F6363008600C4669462846E9
:1031C000FEF7E2FE00284DD19DF8001029B99DF8C8
:1031D000011011B99DF8021011B302AA022128466C
:1031E00001F023FC00283DD19DF8001029B102997F
:1031F000226801F24E21114421609DF8021031B184
:103200000299226801F2B22102EB410107E09DF828
:10321000011029B10299226801F52571114421603C
:103220009DF8031061B103AA0321284601F0FDFBBC
:103230000399226801F5257111442160002811D1FC
:103240009DF8041061B104AA0421284601F0EDFBA9
:103250000499226801F2262111442160002801D13D
:103260002168696105B030BD38B50C4640F2FF7584
:103270006A462821FEF743FF00280DD1BDF8001053
:10328000C1F30B02ADF80020AA424FF0FA0101DDB4
:10329000A2F580524A43226038BD000010B50024D8
:1032A0000B4610F1080F3DD01DDC10F1140F41D07A
:1032B0000CDC10F1630F45D010F1320F40D010F14B
:1032C000280F3BD010F11E0F3ED135E010F10C0F4E
:1032D00022D010F10B0F2BD010F10A0F26D010F1D5
:1032E000090F31D120E0C01D08282DD2DFE800F001
:1032F000181612100E0C060414A100E016A11846B0
:10330000FCF766FF204610BD1AA1F8E71EA1F6E7FC
:1033100021A1F4E727A1F2E72BA1F0E730A1EEE726
:1033200032A1ECE735A1EAE73BA1E8E73FA1E6E7F8
:1033300043A1E4E749A1E2E74EA1E0E753A1DEE7BC
:1033400058A1DCE75EA1DAE763A1D8E74E6F20451C
:1033500072726F720000000043616C696272617486
:10336000696F6E205761726E696E67204572726F69
:10337000720000004D696E20636C69707065642096
:103380006572726F72000000556E646566696E65E5
:1033900064206572726F7200496E76616C69642098
:1033A000706172616D6574657273206572726F729F
:1033B000000000004E6F7420737570706F7274653A
:1033C00064206572726F7200496E746572727570F6
:1033D00074206E6F7420436C656172656400000038
:1033E00052616E6765206572726F720054696D6517
:1033F000206F7574206572726F7200004D6F646586
:10340000206E6F7420737570706F727465642065C0
:1034100072726F72000000004275666665722074F9
:103420006F6F20736D616C6C000000004750494F56
:10343000206E6F74206578697374696E6700000090
:103440004750494F2066756E6374206E6F74207309
:103450007570706F7274656400000000436F6E7465
:10346000726F6C20496E7465726661636520457287
:10347000726F7200496E76616C696420436F6D6D86
:10348000616E64204572726F720000004469766953
:1034900073696F6E206279207A65726F204572724F
:1034A0006F7200005265666572656E6365205370C9
:1034B000616420496E6974204572726F7200000069
:1034C0004E6F7420696D706C656D656E74656420F7
:1034D0006572726F72000000556E6B6E6F776E20B2
:1034E0004572726F7220436F646500002DE9FF4FD3
:1034F0008BB04FF00009199D8DF800909A46064652
:10350000C8464F468DF804908DF808908DF80C90C1
:10351000ADF81090C1F3C304CDF81490BCB1052CE4
:1035200015D0072C13D00C2C11D00D2C0FD00E2C35
:103530000DD00F2C0BD0002083466A460021304668
:10354000FEF71FFC9DF80010C9B110B11DE001206D
:10355000F2E705AB06AA30461899FFF79FF9A0B924
:103560001899059807AA488100213046FEF716FCF5
:10357000079921B1069A8A4201D94FF0010920B971
:1035800002AA02213046FEF7FCFB9DF8081011B399
:1035900038BB08AA02213046FEF700FC80B90122A0
:1035A000FF213046FFF7D6F850B904AAB6213046BD
:1035B000FEF7A5FD20B90022FF213046FFF7CAF82B
:1035C000BDF810104902C6F84811089A1AB1914284
:1035D00001D94FF0010820B903AA03213046FEF7B4
:1035E000D0FB9DF80C1091B190B9BAF1000F12D038
:1035F0000D980102B1FBFAF0824609AA0321304678
:10360000FEF7CCFB099911B18A4500D2012720B100
:10361000287858B32DE00020EEE7BBF1000F01D071
:10362000FF2013E0012C10D0022C0ED0032C0CD064
:10363000062C0DD0092C0BD0082C04D00A2C02D05B
:10364000B8F1000F06D0032000E00520287010E03C
:103650000420FBE7042C00D00FB10220F6E7B9F1FB
:10366000000F01D00120F1E70020287018990020F8
:10367000488101AA01213046FEF783FB002825D1AD
:103680009DF8001011B15FEA090100D0012186F810
:103690002E10042C15D09DF8041091B15FF000019C
:1036A00086F82F109DF8081011B15FEA080100D0CC
:1036B000012186F830109DF80C1001B11FB10121D5
:1036C00002E00121ECE7002186F831100FB0BDE8DF
:1036D000F08F38B51446CA6822606A4600F007F8D1
:1036E000002803D12168009A1144216038BDF8B543
:1036F000064600200D461060144669463046FEF727
:1037000094FC002809D19DF80010002905D0A98A51
:10371000326A51438031090A2160F8BD38B5144638
:1037200021B1012905D06FF003010DE06A46502157
:1037300001E06A467021FEF7CCFC010004D19DF83F
:103740000000FFF705FA2070084638BD0246002049
:103750004FF0804100E089089142FCD808E043180E
:10376000934203D8D21A01EB500000E040088908C8
:103770000029F4D170470000F8B5074600200D4637
:103780000446061F13E0CBB2641CFF2B05D0042BAC
:103790000CD8295D00206A4639E0295D641C61B1BE
:1037A000012912D0022918D003291ED03046295DE4
:1037B000002901D00028E6D0F8BD2A5D641C295DEF
:1037C00001EB0221A7F8341116E0295D641C2A5D83
:1037D00002EB0121A7F836110EE02A5D641C295D79
:1037E00001EB0221A7F8381106E0295D641C2A5D6F
:1037F00002EB0121A7F83C11641C295D0029C2D10C
:10380000F8BD00BF15F804C002F800C0401C641CDD
:103810009842F7DB3846FEF7BEFFC8E7F8B5064624
:1038200000208DF8000004464FF4FA6569463046E2
:10383000FEF7F1FA002807D19DF80010012903D006
:10384000641CAC4201D3C01FF8BD3046FEF738FC03
:10385000ECE72DE9F04385B01D0091460E46074682
:103860004FF0000401D097F8304102220121FEF709
:1038700071FF4FF0000838B90021384600F052F9C6
:1038800010B9B9F1010F11D086F8008000280AD1D3
:10389000002D08D0224601213846FEF75BFF0028A4
:1038A00001D187F8304105B0BDE8F083012004A9BB
:1038B000CDE90016CDE9028042460146134638465E
:1038C00000F0B8F9E2E72DE9F0411E46174605463B
:1038D00090F830410023324600F040F9002810D122
:1038E0000023324639462846FFF7B3FF002808D1A7
:1038F000224601212846FEF72DFF002801D185F838
:103900003041BDE8F0812DE9F74F96B006462C20F6
:103910000B9000200E9011908DF84C008DF8500007
:103920001290B6F83CA14FF0B4094FF0030B0146DA
:103930004FF00608074672180020491C82F824013F
:103940004145F8D30122FF213046FEF703FF040072
:1039500079D100224F213046FEF7FCFE0400F7D15A
:103960002C224E213046FEF7F5FE0400F0D1002255
:10397000FF213046FEF7EEFE0400E9D14A46B621AB
:103980003046FEF7E7FE0400E2D1002280213046F7
:10399000FEF7E0FE0400DBD1002314AA13A9304691
:1039A000FFF791FF0400D3D106F592730EAACDF86C
:1039B000008006930E90CDE903B29A1D0A92CDE9DC
:1039C00001900146304600F092FF04003BD109A966
:1039D00030460E9D01F062F9040034D1BDF8241088
:1039E000514531D900213218401C82F8241140453C
:1039F000F9D300E06D1C09EB050001F08FF810B958
:103A00000B988542F6D301200EA9CDF800801590C1
:103A1000CDE903B1CDE9019501463046069B0A9AEE
:103A200000F065FF040079D109A930460E9D01F030
:103A300035F9040072D1BDF82410514505D9012093
:103A40005F46129001E051E0159089B2514555D280
:103A5000159812905F4642460FA80699FCF794FB12
:103A6000BDF82410B1EB0A0000D54042834611ABEB
:103A70002A4641460A9800F0A5FF1198411C0FD034
:103A8000484401F04BF8159988422ED1119D4146CA
:103A90002A467F1C069800F074FF040003D03DE026
:103AA0006FF031043AE030466D1C069901F05EF982
:103AB000040033D109A9304601F0F0F804002DD1FB
:103AC000BDF82410B1EB0A0000D5404251450ED993
:103AD00058450AD90FA9304601F048F90446424634
:103AE0000FA90698FCF750FB7F1E3CB116E08346F9
:103AF00042460FA80699FCF747FBB8E717980760FE
:103B0000189912980870012086F815011798007806
:103B100086F813011898007886F8140119B0204629
:103B2000BDE8F08F10B541F0010204460021FEF718
:103B300011FE002811D12046FFF770FE00280CD19D
:103B400000212046FDF796FF002806D120460022DE
:103B5000BDE810401146FEF7FDBD10BD2DE9F04354
:103B600085B04FF000051E0091460F4680462C465A
:103B70008DF8105001D098F8305101221146FEF70F
:103B8000E9FD38B940214046FFF7CCFF10B9B9F143
:103B9000010F10D03C7000280AD1002E08D02A4610
:103BA00001214046FEF7D6FD002801D188F83051AA
:103BB00005B0BDE8F083012004A900970394CDE986
:103BC0000110224601461346404600F033F8E2E772
:103BD000012300F016B838B5144604236A4600F0F5
:103BE00010F89DF803109DF800209DF8023001EBBD
:103BF00002619DF80120120402EB032211442160AE
:103C000038BD70B51D46134600242A4600F0ECFA74
:103C100000B10124204670BD38B5144602236A461F
:103C2000FFF7EFFF9DF801109DF8002001EB022146
:103C3000218038BD2DE9FF4F81B00020DDE90EA9BC
:103C4000DDE910650F468DF800009B460122FF213B
:103C50000198FEF77FFD0446002211460198FEF709
:103C600079FD40EA04080022FF210198FEF772FD69
:103C700040EA08046FB12EB15246CB210198FEF7FD
:103C800028FA0443A5B16A46EE210198FEF721FA0D
:103C90000DE02EB1CB21039A0198FEF75BFD0443A2
:103CA00035B15B468022EE210198FEF732FD0443D8
:103CB0000122FF210198FEF74DFD0443012200215E
:103CC0000198FEF747FD04430022FF210198FEF70B
:103CD00041FD9DF80010204301F0EF0289F800201B
:103CE00005B0BDE8F08F2DE9FF4107464FF4FA60BB
:103CF00002900020039044F620600E466FF003050A
:103D000081424FD3A6F6363469463846FEF73CF971
:103D1000002844D19DF8001029B99DF8011011B96F
:103D20009DF8021001B302AA0221384600F07DFE80
:103D3000002834D19DF8001029B1029901F24E21DA
:103D4000A1422FD2641A9DF8021021B1029901F20A
:103D5000B221490005E09DF8011029B1029901F551
:103D60002571A1421ED2641A9DF8031061B103AA05
:103D70000321384600F059FE039901F52571A1424F
:103D800010D2641A00280AD19DF80410002906D028
:103D9000A4F226220421384600F0EDFF7E6104B033
:103DA000BDE8F0812846FAE72DE9F04790468946BC
:103DB00086B004460025B42606274FF02C0A0122BF
:103DC000FF21FEF7C7FCB0B900224F212046FEF7C5
:103DD000C1FC80B92C224E212046FEF7BBFC50B915
:103DE0000022FF212046FEF7B5FC20B93246B6215D
:103DF0002046FEF7AFFC002001462218401C82F846
:103E00002411B842F9D3B8F1000F01D106E06D1CBE
:103E1000701900F083FE08B95545F8D305A900973D
:103E2000CDE90391CDE9016504F592739A1D4146F0
:103E3000204600F05CFD002806D1012184F8151110
:103E400084F8139184F8148106B0BDE8F0872DE959
:103E5000FF41074600208DF80C0014460E46D0079F
:103E60006FF0030571D116B1012E0DD0B2E00C2C0C
:103E70006BD3122C69D80C2C13D00E2C13D0102C11
:103E800013D0122C13D0A5E0082CF1D30E2CF1D8AE
:103E9000082C17D00A2C44D00C2C57D00E2C69D0EB
:103EA00098E0182204E0302202E0402200E0502294
:103EB00057213846FEF74EFC082256213846FEF7B9
:103EC00049FC85E0102248213846FEF743FC0822D1
:103ED00047213846FEF73EFC804602223221384612
:103EE000FEF738FC40EA08080C2230213846FEF77D
:103EF00031FC40EA08080122FF213846FEF72AFC7F
:103F000040EA0808302211463846FEF723FC40EA12
:103F100008080022FF213846FEF71CFC40EA080092
:103F200056E0282248213846FEF714FC0822472193
:103F30003846FEF70FFC8046032232213846FEF752
:103F400009FC40EA0808092227E04AE03822482113
:103F50003846FEF7FFFB082247213846FEF7FAFBFA
:103F60008046032232213846FEF7F4FB40EA080877
:103F7000082212E0482211463846FEF7EBFB0822E1
:103F800047213846FEF7E6FB8046032232213846B9
:103F9000FEF7E0FB40EA0808072230213846FEF72A
:103FA000D9FB40EA08080122FF213846FEF7D2FB80
:103FB00040EA0808202230213846FEF7CBFB40EAD1
:103FC00008080022FF213846FEF7C4FB40EA08003B
:103FD000002807D12046FEF7F3FD80462EB1012EC2
:103FE00023D0284604B0BDE8F08101AA0321384659
:103FF00000F01BFDB0B902AA0221384600F015FD01
:1040000080B9424650213846FEF7A4FB50B903213F
:104010003846019A00F0AFFE20B902213846029AD4
:1040200000F0A9FE87F8E84012E06A46042138460D
:1040300000F0FBFC50B9424670213846FEF78AFB7F
:1040400020B904213846009A00F095FE87F8E04038
:104050000028C7D138467969FEF7B1F90028C1D1E7
:104060000123002203A93846FFF7F3FBBAE707B59F
:10407000012302AA00F012F80EBD08B5130E8DF848
:104080000030130C8DF80130130A8DF802308DF8D2
:10409000032004236A4600F001F808BD70B51D46F0
:1040A000134600242A4600F085F900B10124204679
:1040B00070BD38B50546100A8DF800000C468DF825
:1040C0000120C80708D001236A462846FFF7E6FF0B
:1040D00001236A46214601E002236A462846FFF78B
:1040E000DDFF38BD70B50E4C0025C4F88C510D486D
:1040F000416821F070414160416841F040514160A8
:104100000948C0F8BC51022004F5C67400F0D7FB82
:1041100001202060022000F0D2FB256070BD00006D
:1041200000802142002001400000244270B50E4C66
:104130000025C4F88C510D48416821F07041416060
:10414000416841F04051416009480126C0F8BC6116
:10415000022004F5C67400F0B2FB2660022000F0D5
:10416000AEFB256070BD00000080214200200140B0
:10417000000024422DE9F047824618480024416897
:1041800021F070414160416841F000414160144EAE
:10419000DFF85090254627464FF00108C6F88C718D
:1041A000042000F08CFBC6F88C816006040ED9F860
:1041B0003C0108B1641CE4B2042000F080FB6D1CDB
:1041C000EDB2082DEAD3BAF1000F04D0FFF78AFF51
:1041D0002046BDE8F087FFF7A9FFF9E7002001407E
:1041E00000802142000024422DE9F0411D46144682
:1041F0000F46064600F062F8304600F027F800F05F
:10420000A9F820B100F080F80120BDE8F08138461F
:1042100000F01CF800F09EF800F050F846F00100A5
:1042200000F014F800F096F808E0012C0CD0012002
:10423000FFF7A0FF641E05F8010BA4B2002CF4D117
:1042400000F062F80020E0E70020F1E72DE9F047F8
:1042500005461748416821F070414160416841F0CE
:1042600040514160134F0026C7F88C61DFF8489039
:1042700034464FF00108280602D5C9F8BC8101E098
:10428000C9F8BC616806050E022000F018FBC7F8EB
:104290008C81022000F013FBC7F88C61022000F033
:1042A0000EFB641CE4B2082CE5D3BDE8F0870000E7
:1042B00000200140008021420000244270B50F48D8
:1042C000416821F070414160416841F040514160D6
:1042D0000B4C0120C4F8BC010A4DC5F88C01042028
:1042E00004F5DE7405F5C67500F0E9FA00262660CF
:1042F000042000F0E4FA2E6070BD000000200140B0
:10430000000024420080214270B50F48416821F02E
:1043100070414160416841F0405141600B4C0020C8
:10432000C4F88C010A4DC5F8BC01042004F5C6741C
:1043300005F5DE7500F0C3FA012020602860BDE8B5
:104340007040042000F0BBBA0020014000802142F0
:10435000000024422DE9F04113480024416821F077
:1043600070414160416841F0004141600F4D0126BC
:10437000C5F8BC61304600F0A2FA0D4FC7F88C6159
:10438000012000F09CFA08E0641CE4B2FA2C04D985
:10439000FFF7BAFF0120BDE8F081D5F83C01002805
:1043A000F2D1C7F88C01F6E700200140000024425A
:1043B000008021422DE9F0411C4615460F46064675
:1043C000FFF77CFF3046FFF741FFFFF7C3FF20B147
:1043D000FFF79AFF0120BDE8F081384602E000BFF8
:1043E00014F8010BFFF732FFFFF7B4FF6D1EADB2FB
:1043F000F6D2FFF789FF0020EDE700000FB4054B70
:1044000010B503A9044A029800F028F810BC5DF822
:1044100014FB0000AD490008380300200907090E0D
:10442000002804DB00F1E02080F80014704700F061
:104430000F0000F1E02080F8141D704702E008C86A
:10444000121F08C1002AFAD170477047002001E00E
:1044500001C1121F002AFBD1704700002DE9FF4F58
:104460008DB00F460546002606E025280BD0DDE975
:104470000F1290476D1C761C28780028F5D111B0DA
:104480003046BDE8F08F0024A246A1460122EC4947
:1044900000E0044315F8013F203B02FA03F0084214
:1044A000F7D128782A2810D06FF02F022878A0F1B1
:1044B0003001092914D80AEB8A0102EB410144F0CA
:1044C000020400EB010A6D1CF0E701CF5FEA000A6D
:1044D00003D544F40054CAF1000A44F002046D1CF0
:1044E00028782E2817D115F8010F44F004042A2843
:1044F0000ED06FF02F022878A0F1300109290AD8D8
:1045000009EB890102EB410100EB01096D1CF2E7A7
:1045100057F8049B6D1C28786C280FD006DC4C28BB
:1045200017D068280DD06A2814D104E0742810D060
:104530007A280FD10DE044F400140AE044F480140A
:1045400001E044F440146978814202D104F58014FA
:104550006D1C6D1C2A786E2A1FD00CDC632A31D0AA
:1045600004DC002A8BD0582A11D1A3E0642A68D039
:10457000692A0CD165E0732A2ED004DC6F2A73D02F
:10458000702A04D19BE0752A6FD0782A6ED010462D
:10459000DDE90F129047761C50E1C4F30250022867
:1045A00006D0032809D0042801CF09D0066045E1D0
:1045B00001CFF117C0E9006140E101CF06803DE184
:1045C00006703BE117F8040B8DF8000000208DF811
:1045D0000100EB46012003E057F804BB4FF0FF3029
:1045E00061074FF0000102D40DE008F10101884697
:1045F00049450FDA8045F8DB1BF808100029F4D193
:1046000008E008F1010188468142FADB1BF8081036
:104610000029F6D1DDE90F23AAEB080081462146E7
:1046200000F036F9304400EB080604E0DDE90F1233
:104630001BF8010B9047B8F10108F7D22146484614
:10464000F7E00A21C4F302534FF0000B0891022B4C
:1046500004D001CFC117032B09D00AE0FF1D27F0BA
:104660000707F7E8020108E032E01FE020E000B2AF
:10467000C117042B01D140B2C117031E71F1000311
:1046800007DA4FF0000CD0EB0C006CEB01012D238E
:1046900002E0230504D52B238DF82430012303E009
:1046A000E30701D02023F7E7984658E00A2110E0FD
:1046B00010210EE010204FF0000B08900CE01021AC
:1046C0004FF0000B44F004044FF00809089103E098
:1046D00008214FF0000B0891C4F30253022B04D0C1
:1046E00001CF0021032B06D006E0FF1D27F00707AE
:1046F000F7E8020103E080B2042B00D1C0B24FF012
:10470000000823072BD5702A07D0DDF820C08CF0D5
:10471000100C5CEA0B0C05D00EE040238DF8243021
:10472000012308E050EA010306D030238DF824303D
:104730008DF8252002239846DDF820C08CF0080C67
:104740005CEA0B0C0BD150EA010301D1630706D5DB
:1047500030238DF824304FF00108A9F10109582ABF
:1047600004D038A20B9208AA0A920BE03AA2F9E709
:104770005B46089AFBF735FD0B9B9B5C0A9A521E21
:104780000A92137050EA0102F2D10A98ADEB0000D0
:1047900000F1200B600702D524F4803401E04FF0D3
:1047A0000109D94502DDA9EB0B0000E0002000EB78
:1047B0000B0141440890AAEB010AE00306D4DDE9AD
:1047C0000F232146504600F063F806444FF00009DD
:1047D00008E009A911F80900DDE90F12904709F175
:1047E0000109761CC145F4DBE0030CD5DDE90F239C
:1047F0002146504600F04CF8064404E0DDE90F1273
:1048000030209047761C0899481E08900029F5DC56
:1048100008E00A980A990078491C0A91DDE90F120C
:104820009047761CBBF10001ABF1010BF1DC214696
:104830005046DDE90F2300F019F806446D1C1BE615
:104840000928010030313233343536373839616266
:10485000636465660000000030313233343536372A
:104860003839414243444546000000002DE9F041FB
:10487000044600251E461746880404D405E0394640
:104880002020B0476D1C641EF9D52846BDE8F08194
:104890002DE9F041044600251E469046C80301D587
:1048A000302700E02027880404D505E0414638463B
:1048B000B0476D1C641EF9D52846BDE8F08170B57F
:1048C0004FF0E02300215C6900EBC0009A69C5004D
:1048D00098699042FCD002D2A2EB000202E0A4EB65
:1048E0000006324411440246A942F1D370BD2DE9BD
:1048F000FF4F83B00024DDE9125A149F9B46DDF878
:10490000409026466FF0310800951AE06B462A4623
:104910004946059800F056F80098411C06D01199B8
:10492000084400F0FBF80499884202D044463D60F8
:1049300023E0009D49462A46584600F022F86D1CA7
:10494000761C5645E2D33D60BCB95946039800F049
:104950000DFA040011D101A9039800F061F8044692
:10496000002001A907E01BF800200B5C9A4201D04F
:10497000444602E0401C4845F5D307B02046BDE858
:10498000F08F70B50825B2FBF5F3B2FBF5F60446DF
:10499000002005FB16228B4202D36FF0310070BD60
:1049A000E15C012595402943E15470BD13B54FF6F4
:1049B000FF73012269460248FCF700FB00981CBD0A
:1049C000680400202DE9F043082581464FF0FF30B0
:1049D0001860B2FBF5F0B2FBF5F605FB10274FF0BF
:1049E000000C304615E0002219F80040B04202D118
:1049F000FC403A460AE05FEAC47805D000FB052295
:104A00004FF0010C1A6003E06408521CAA42F2D372
:104A1000401C884202D2BCF1000FE4D0BDE8F08314
:104A200006230A46B021FDF775BB2DE9F0410024AD
:104A30008AB0174680468DF81C402546ADF81840D0
:104A4000264641B1012906D0022904D0032912D0FB
:104A5000042929D05DE06A4600214046FDF7CDFAE1
:104A6000040005D107AA46214046FDF732FB044663
:104A70009DF81C0015E06A4600214046FDF7BDFA8E
:104A8000040046D16A4600214046FDF7B6FA04000C
:104A900005D106AA51214046FDF731FB0446BDF879
:104AA0001800FEF74FF82DE004A94046FDF76CFA18
:104AB0009DF81300002590B16A4600214046FDF79D
:104AC0009CFA04001DD106AA51214046FDF717FBB0
:104AD0000446BDF81800FEF735F885B28CB96A4671
:104AE00001214046FDF789FA04000AD108AA712184
:104AF0004046FDF704FB0446BDF82000FEF722F80F
:104B000086B2701B81B29DF800204046FDF7EBFF96
:104B100005463D600AB02046BDE8F0810146044AE2
:104B20008909012052F82110002900D10020704786
:104B30001C030020FBF734FDFCF79EFDFCF798FA00
:104B4000FCF788FCFCF7AAFBFCF7F2FBFCF742FC45
:104B5000FCF762FBFCF700FD112869D2DFE800F0EA
:104B600029090B0D0F11131517191B1D1F212325C3
:104B7000270032A05AE032A058E032A056E032A01E
:104B800054E032A052E032A050E032A04EE032A019
:104B90004CE032A04AE032A048E032A046E032A029
:104BA00044E032A042E032A040E032A03EE032A039
:104BB0003CE00520FCF76CFC06460620FCF768FC90
:104BC00005460720FCF764FC04460820FCF760FC5F
:104BD000802C07D0A4F140017F2912D8B22805D932
:104BE00026A023E08028F9D1802E07D0A4F140012F
:104BF0007F2906D8322804D221A017E0802D0BD1BE
:104C000016E040387F2807D8322C01D21DA00DE0D5
:104C1000B22C01D91CA009E0403D7F2D08D8B22E4E
:104C200001D91AA002E0322E02D21AA0FFF7E6FB49
:104C30000A20FBF75DFB00F073FA8BE73100000000
:104C40003200000033000000340000003500000096
:104C50003600000037000000380000003900000076
:104C600031300000313100003132000031330000BA
:104C7000313400003135000031360000BAF3000055
:104C8000C7B00000D7F30000D3D20000D3D2D7AA18
:104C900000000000D7F3D7AA0000000070B50E4650
:104CA00088B0054690F83041C0220121FDF752FD41
:104CB000002823D169462846FDF7E8F900281DD1D0
:104CC0000122FF212846FDF745FD002816D1324676
:104CD000B6212846FDF713FA00280FD10022FF2144
:104CE0002846FDF737FD002808D122460121284635
:104CF000FDF730FD002801D185F8304108B070BDC6
:104D000010B588B004466946FDF7A6F86A46214604
:104D100002A0FFF773FB08B010BD0000415049200E
:104D20005374617475733A202569203A2025730DF8
:104D30000A00000010B500201870052913D2DFE822
:104D400001F00306090C0F00C2F3001109E0C2F3E1
:104D5000C00106E0C2F3800103E0C2F3801100E06D
:104D6000D109197010BD6FF0030010BD06230A466B
:104D7000B021FDF710BDF0B587B01646054661B10C
:104D800001290AD0022908D0032922D004293ED0C3
:104D90006FF0030407B02046F0BD05AA0021FDF71F
:104DA0002CF90400F6D19DF8142031462846FDF771
:104DB00089FE80B2B0F5807F01D9FF2201E0401E5C
:104DC000C2B2A5F8D82046212846FDF7C3FC044608
:104DD000E0E705AA0021FDF710F904469DF814202C
:104DE00031462846FDF76EFE80B2FDF7DAFEADF8DB
:104DF00008000246A5F8D800002CCBD15121284646
:104E0000FDF7BEFC0400C5D1C5F8E460C2E703A904
:104E1000FDF7BAF89DF80F00002798B105AA002108
:104E20002846FDF7EAF80400B4D102AA5121284629
:104E3000FDF765F90446BDF80800FDF783FE87B26B
:104E4000002CA7D105AA01212846FDF7D6F80400B9
:104E5000A0D19DF8142031462846FDF733FE384492
:104E6000FDF79FFE024671212846FDF789FC0400EC
:104E700090D1C5F8DC608DE7F8B5064690F85C0186
:104E80000D46A84201D10020F8BD002288213046FD
:104E9000FDF760FC040001D0012515E06A46C02141
:104EA0003046FDF72CF9040001D002250CE0BDF8D6
:104EB0000000A0F56E41AA390DD129463046FDF714
:104EC00038F9040009D00325FFF71AFF1DB1294660
:104ED00008A0FFF793FA2046F8BD86F85C516A46B1
:104EE000C0213046FDF70BF90400F4D00425FFF78C
:104EF00007FFECE77374613A307825780D0A0000FB
:104F00002DE9F041522180F85C110125164F80F8FF
:104F10005D514FF4C871A0F85E1100260446C7F831
:104F2000B8611E2007F5DC77FBF7E2F93D601E2033
:104F3000FBF7DEF954212046FFF79EFF2046FCF7E1
:104F4000BFFD050008D10220FBF7D2F90749204632
:104F5000FCF782FE050004D0FFF7D2FE2846BDE82C
:104F6000F08103480670F9E700002442080600209B
:104F70002400002070B586B00D46064600F0B0F85B
:104F80003046FDF7E1FA04007DD102AA01A93046BE
:104F9000FDF766F80400F7D10220FBF7A9F904AA8F
:104FA00003A93046FDF75FF804006CD10220FBF73F
:104FB0009FF901213046FDF7C0F8040063D10220BB
:104FC000FBF796F94348C5EBC50100EB41053046B8
:104FD000A968FDF760F9040073D10220FBF788F996
:104FE000012200213046FDF781F9040069D1022039
:104FF000FBF77EF9012211463046FDF777F90400F0
:105000005FD10220FBF774F96A6800213046FDF792
:10501000AEF9040055D10220FBF76AF92A68012194
:105020003046FDF7A4F904004BD10220FBF760F9EC
:10503000A9683046FDF7C3F9040042D10220FBF70E
:1050400057F92A7B00213046FDF712FA040038D1C7
:105050000220FBF74DF96A7B01213046FDF708FA83
:1050600004002ED10220FBF743F93046FDF726FB62
:10507000040026D10220FBF73BF9174D01213046F1
:10508000D5E9012300E01CE0FDF71DF9040018D16B
:105090000220FBF72DF90020009001462B78012219
:1050A0003046FDF75CF804000BD10220FBF720F935
:1050B00000213046FCF7DEFC04460A20FBF7C0FA6C
:1050C00024B12046FFF71CFE06B070BD3046FDF748
:1050D000D1F9F9E72500002060000020FFF74ABF62
:1050E00070B50E4E044690F85C510020C6F8B80129
:1050F0001E2006F5DC76FBF7FBF8012030601E2051
:10510000FBF7F6F8522084F85C0129462046FFF7A9
:10511000B3FE2046BDE87040FCF7D2BC000024423C
:105120000A4C4FF4FA7506E020212046FBF71DFAE1
:105130002846FBF7DDF80648FFF7E2FE0028F3D12A
:1051400000210348FFF7CAFFFAE70000000C014006
:10515000A804002000000000000000000102030479
:105160000607080900000000010203048C51000832
:10517000000000203C030000860200086C54000878
:105180003C0300204C0700004C440008102801425A
:1051900000000100020003000400050006000700F3
:1051A000080009000A000B000C000D000E000F00A3
:1051B000100000004004600A001200E88000000EA9
:1051C0000A0E1004400D030E2399191C323C1C4397
:1051D000120E2A30052000204E2A120058411F10BE
:1051E0000D000096000024F40001FF01017230144C
:1051F000FF00010900011000011100012401012537
:10520000FF01751B20094E2C014800013020212090
:105210003630090154000131040132030140830199
:10522000462501600001270001500601510001528E
:1052300096015608015730016100016200016400C7
:105240000165000166A045300B2232014714014977
:10525000FF014A6920097A0A017B00017821601365
:105260002334F120160144FF014526014605014083
:1052700040010E0601201A0143402A200634030192
:10528000354487117520094B09014C05014D044235
:10529000301D4400014520014708014828016700EE
:1052A0000170040171010172FE0176000177B723DC
:1052B0000D0169200680010101F8C6128EE4411239
:1052C000252A511B51F9106701014F0201FF0E0100
:1052D000000301018401020A01030301040801051E
:1052E000C801060301078D0108080109C6010A016A
:1052F000010B02010C00010DD5010E18010F120166
:1053000010010111820112000113D50114180115B9
:105310001301160301178601180A011909011A0859
:10532000011BC2011C03011D8F011E0A011FD514A0
:1053300031010121020122000123D5012418012598
:10534000220126010127820128000129D5012A18FE
:10535000012B0B012C28012D78012E28012F910102
:10536000306B34380B01320001330B01340001354E
:10537000A10136000137A0013800013904013A28A3
:10538000013B30013C0C013D04013E0F013F79011E
:10539000402801411E01422F0143872024080B01B0
:1053A000460001470BBF2749A77A24064BA6014CAC
:1053B0000041124EF315B6242F000151800152090D
:1053C00001530801540101550001560F015779019D
:1053D0005809015905015A00015B60015C05015D36
:1053E000D1015E0C015F3CEC142C61D001620B0119
:1053F000630301642801651001662A0167390168A9
:105400000B016902016A28016B10016C2A016D61B0
:10541000016E0C016F9534110F0171790172000159
:10542000730B01740001750B9E140DA1017800012E
:1054300079A0017A00017BCB441F0401791D017B17
:105440002701960E0197FE0198030199EF019A0238
:10545000019B440173070170A425B9410129C05281
:0C546000050C210819B93D0E0361010084
:0400000508000131BD
:00000001FF
