:020000040800F2
:100000000803002005010008090100080B01000891
:100010000D0100080F010008110100080000000098
:1000200000000000000000000000000013010008B4
:100030001501000800000000170100081901000860
:100040001B0100081B0100081B0100081B01000820
:100050001B0100081B0100081B0100081B01000810
:100060001B0100081B0100081B0100081B01000800
:100070001B0100081B0100081B0100081B010008F0
:100080001B0100081B0100081B0100081B010008E0
:100090001B0100081B0100081B0100081B010008D0
:1000A0001B0100081B0100081B0100081B010008C0
:1000B0001B0100081B0100081B0100081B010008B0
:1000C0001B0100081B0100081B0100081B010008A0
:1000D0001B0100080B0600081B0100081B0100089B
:1000E0001B0100081B0100081B010008DFF80CD0F1
:1000F00000F08CFF004800472101000808030020A1
:1001000030BF000005480047FEE7FEE7FEE7FEE7D8
:10011000FEE7FEE7FEE7FEE7FEE7FEE7ED0000088C
:1001200086B0092000F007FA482000F099F84FF453
:100130001651482000F0A4FA00214FF4617000F03D
:100140005EFC00F015FB00F031FB00F03FFC82E0AC
:1001500000F08EFB002874D1322000F09DF80020C2
:100160003D49086000F0F8FB082000F018FCA0F101
:100170007F040494002C01DB049901E004994942B6
:10018000084600F039FE4FF08641019000F084FDF2
:10019000834600F083FECDE90201052000F0FFFB5D
:1001A000A0F1800B584600F035FE4FF066322B4B25
:1001B000CDE9000100F0AEFD0746DDE9022300F0C5
:1001C000A9FD054600F04BFE0FFA80F9082000F06B
:1001D000E6FBC0F17F00C0EBC004002C12DDB9F1DA
:1001E000000F05DA04EB09000FFA80FA059432E0FB
:1001F000A246A4EB090000B205905046059900F014
:1002000049FC28E0002C17DAB9F1000F09DAA4EB59
:1002100009000FFA80FA05945046059900F03AFC5F
:1002200019E0A24604EB090000B20590504605997A
:1002300000F030FC0FE004E00021084600F02AFC4A
:1002400009E00120044908600021084600F022FC72
:10025000322000F021F87BE7888122426666024066
:100260004FF0E021096921F004014FF0E022116113
:10027000C21700EB5272C2F3C702234B1A70194621
:10028000097801EB4102C2EBC1114FF6FF7202EA9D
:10029000C1011E4A1180704701461C4A12884A4318
:1002A0004FF0E0235A6100229A6101221A6100BFD7
:1002B0004FF0E022106900F001021AB100F4803220
:1002C000002AF5D000224FF0E0231A619A617047AE
:1002D00001460D4A12784A434FF0E0235A6100224A
:1002E0009A6101221A6100BF4FF0E022106900F00C
:1002F00001021AB100F48032002AF5D000224FF03A
:10030000E0231A619A61704700000020020000207B
:10031000AA4A0A400243AA4B1A60704701460723C3
:1003200023EA01021202A64B1B1D18684FF6FF03B9
:100330001840A44B18431043A14B1B1D1860704775
:100340002DE9F0478046894614461D462046E117B0
:1003500004EB9171C1F3870AE11704EB91718910E5
:10036000A4EB8101CFB2042000EBC700C7B228463E
:10037000FFF7D4FFC5F1040008FA00F60F2028416A
:1003800000EA0900064306F00F06202C09DA8E4821
:1003900001680120A04001434FF0E020C0F80011A7
:1003A0000BE08948001D0068A4F1200101228A4069
:1003B00010434FF0E021C1F80401844850F82A00AE
:1003C00006FA07F10843814941F82A00BDE8F087A1
:1003D00070B504460B46CE1701EB9676C6F3870040
:1003E000CE1701EB9676B610A1EB8606B606350E53
:1003F000774B9B6943F00103754EB3614FEAB63307
:1004000053F820300F26AE40B343724E46F82030EA
:10041000334653F8203004FA05F61E436D4B43F87B
:1004200020606D4B1B6801268E4033436A4E33605B
:1004300002F0010343B1684B0C331B6801268E4068
:100440003343654E0C36336002F0020343B1624B16
:1004500008331E6801238B401E435F4B08331E6028
:1004600070BD00B500205A490861C8601420486179
:1004700000208861C8610846006840F001000860FB
:100480000846406855490840514948600846006898
:10049000534908404E4908600846006820F480200F
:1004A00008600846406820F4FE004860002088602C
:1004B00000214FF00060FFF72BFF00BD10B5404852
:1004C0000830006840F004003D49083108604048A9
:1004D000C06940F080503E49C8614248406840F4DD
:1004E0008070404948600846006840F00400086099
:1004F0000846006840F002000860FFF701FE10BDEA
:100500003048001D2E49091D086070470146490604
:100510002F4A926942F001022D4B9A612D4A083A06
:10052000526822F0E0622B4B083B5A601A46526830
:100530000A435A60704730B504460025FFF791FF23
:100540002348006840F480302149086000BF2048FB
:100550000068400C0028FAD04FF480601C494860C5
:10056000A01EC4B20846406840EA8440486008467D
:10057000406840F4803048601B48006840F032001A
:10058000194908601248006840F0807010490860FE
:1005900000BF0F480068400E0028FAD00C484068A1
:1005A00040F002000A49486005E009484068C0F38D
:1005B000870505F00305022DF7D130BD80FFFF1F31
:1005C00008ED00E00000FA0500E100E000E400E0D2
:1005D0000010024008000140000401400000FFF844
:1005E000FFFFF6FE0070004000200240014600BF01
:1005F000704700BF584A128802F04002002AF9D022
:10060000C2B2554B1B1D1A8070475349098801F02F
:10061000200111B35049091D0988C8B24F49098802
:1006200001F40041C9B94D49098801F4804161B123
:100630000A2803D00021494A118020E0474909884F
:1006400041F40041454A118019E00D2806D1434983
:10065000098841F48041414A118010E03F490988EE
:10066000C1F30D013E4A50543C490988491C3B4A9C
:10067000118011460988C72901DD002111807047CA
:100680002DE9F05F05460E46300100F0BEFB8146C5
:10069000344905FB01F000F0B8FB8246494600F002
:1006A000FBFA0746384600F0C6FB84B2204600F04D
:1006B000ACFB8346394600F0BAFA82464FF08341DC
:1006C00000F0B8FA814600F0B6FB80464FF6FF70A6
:1006D00000EA041404EB080084B22348806940F067
:1006E0000400214988610846806940F4804088619F
:1006F0001E48006820F47F601C49086008460068B6
:1007000040F40B6008601848C06840F48040164907
:10071000C8600846C06820F48040C8600E480830B1
:100720000480001D008842F20C0108430A490C3184
:1007300008800846008840F48070088008460088D9
:1007400040F0200008800223252203210846FFF7FD
:10075000F7FDBDE8F09F00000038014008000020D0
:100760003000002040420F00001002400408014009
:100770000C48806940F020000A4988610A480068F6
:1007800020F47060084908600846006840F4407032
:10079000086005480C30006840F0040002490C3144
:1007A0000860704700100240001401407E488069D4
:1007B00040F008007C4988617C48006820F4702083
:1007C0007A4908600846006840F4002008607648CE
:1007D000806940F008007449886174480068C0F37B
:1007E00013007249086008460068714908436F4960
:1007F0000860704738B504460120009000206D491C
:100800004870012000902EE0BDF80000204018B193
:1008100001206949086002E0002067490860012062
:100820006549083108603220FFF752FD0020634916
:10083000C1F8BC013220FFF74BFD01205F49C1F830
:10084000BC010846D0F8300130B15A484078BDF8B4
:100850000010084357494870BDF800004FF6FF717B
:1008600001EA40000090BDF80000FF28CCDD38BD53
:1008700010B500205049091D086051490878FFF75C
:10088000B9FF4F494878FFF7B5FF01204B49C1F840
:10089000B80148484078732801D1002010BD0120DC
:1008A000FCE71CB500200190012000900020424987
:1008B000091D086042490878FFF79CFF40494878C5
:1008C000FFF798FF0220019033E00120009024E020
:1008D000012039490831086000203849C1F8BC01BD
:1008E0003220FFF7F5FC01203449C1F8BC0108466D
:1008F000D0F8300150B12F489DF80410405CBDF88D
:10090000001008432B499DF804208854BDF80000CE
:100910004FF6FF7101EA40000090BDF80000FF288B
:10092000D6DD3220FFF7D4FC9DF80400401CC0B295
:1009300001909DF804000928C7DB01201E49091D0C
:1009400008601CBD002004E000211A4A1154411C1B
:10095000C8B20928F8DB704710B5FFF7F3FFFFF7BF
:10096000A0FF1448C0781349097940EA01201549CD
:10097000088000240FE0144810F81400401E0121E4
:1009800001FA00F00F490988084010B9601CC0B294
:1009900010BD601CC4B2102CEDDB0020F8E701464E
:1009A0000448405C7047000000100240040C014005
:1009B00000003033F8000020B48121420080214241
:1009C0000C0000200A0000200E000020664880690C
:1009D00040F0100064498861644800686FF30F00BC
:1009E000624908600846006843F2333108435F49B2
:1009F00008600846C06840F00F00C86070475A4A57
:100A0000D26942F00202584BDA61594A126822F068
:100A10007F42574B1A601A46126842F03B421A60F6
:100A2000534A0C32126842F0C002514B0C331A6028
:100A3000504A1080121F11804E4A143A128842F018
:100A400060024C4B143B1A801A46128842F008028E
:100A50001A801A46128842F4C0421A801A46128836
:100A600042F400621A80434A0C3A128842F00102B2
:100A7000404B0C3B1A801A46128842F010021A8032
:100A800080223C4B2C3B1A801A46128842F001020D
:100A90001A80704730B500230022B0F5617F02DD77
:100AA0004FF4617305E010F5617F01DA324B00E02D
:100AB0000346B1F5617F02DD4FF4617205E011F587
:100AC000617F01DA2C4A00E00A465BB901242B4D14
:100AD0002C602B4DC5F884414FF46174254D0835C9
:100AE0002C8017E0002B0ADD0024244D2C6001240B
:100AF000234DC5F884411F4D08352B800AE00124A1
:100B00001E4D2C6000241E4DC5F884415C42194DD9
:100B100008352C8062B90124184D08352C60184D19
:100B2000C5F88C414FF46174124D0C352C8019E0DE
:100B3000002A0BDD0024114D08352C600124104DD6
:100B4000C5F88C410B4D0C352A800BE001240B4D70
:100B500008352C6000240A4DC5F88C415442054DDF
:100B60000C352C8030BD0000001002400010014008
:100B7000000801402C0400407CFCFFFF8001224261
:100B800000002242F0B480EA0102D40F4200B2EB2E
:100B9000410F02D20246084611464A0042D0C30D18
:100BA000DDB2C1F3C752AD1A202D35DAC1F31601FB
:100BB00041F4000204B15242C5F1200602FA06F1E6
:100BC0002A411044B3EBD05F23D0C4B1012DA0EB78
:100BD000C35009DCF0BC4FF0004202EAC352DBB262
:100BE00000F5000000F086B9400000F1807000EBD5
:100BF000C350A0F1807040EAD170490009E0490873
:100C000041EAC071A0EBC35000F50000400800EBC2
:100C1000C350F0BC00F065B96142012202EB410112
:100C2000001BF6E7F0BC704781F00041AAE780F0B6
:100C30000040A7E780EA010210B502F0004340003F
:100C400022D04A001FD0010E01EB1261C0F3560002
:100C5000C2F3560240F4000042F40002A0FB02205E
:100C600000047F39140400D0401C50EA124001D423
:100C70004000491EC2B20C0604EBD010401C4008D4
:100C8000802A02D003E0002010BD20F001000029DE
:100C900000DA0020184310BD30B480EA010202F0EF
:100CA000004530F0004221F0004013D090B1C30D58
:100CB000D40DC2F31601C0F31600E41A41F400018A
:100CC00040F400027D34914201D3641C00E04900ED
:100CD000002C02DA30BC002070474FF400000023E3
:100CE000914201D3891A034340084FEA4101F7D1E9
:100CF00051B1914202D14FF0004105E002D24FF0D4
:100D0000010101E06FF0010103EBC450284430BC45
:100D100000F0E7B82DE9FE4F81EA030404F0004437
:100D200021F0004100944FF0000B23F0004350EA03
:100D300001045ED052EA03045BD0C3F30A54C1F34A
:100D40000A552C44A4F2F3340194A0FB0254C1F3DD
:100D5000130141F48011C3F3130343F4801301FB27
:100D6000024400FB034E840A970A44EA815447EA8E
:100D70008357A4FB076802958D0A05FB07854FEA98
:100D8000932C04FB0C542705029D4FEA065847EAB2
:100D90001637B5EB08056EEB070C870E920E47EA87
:100DA000811742EA8312A7FB0201B6EB0B0164EB49
:100DB00000042B0D43EA0C335E1844EB1C50DA465A
:100DC0005146E7FB0201C5F313044FEA0B3343EA34
:100DD00014534FEA0432019C43EA0603A4F10C04C5
:100DE0000294009CCDE900B400F0C1F803B0BDE866
:100DF000F08F00200146F9E7C10F80EAE070084457
:100E0000CA079623002100F075B8962300221146E8
:100E100000F070B80EB5C10F80EAE0700844CA0750
:100E2000002140F233438DE80E000A460B4600F0E5
:100E30009EF803B000BD20F00040C10DC0F31600C5
:100E400040F400007F2901DA00207047962903DC76
:100E5000C1F19601C840704796398840704770B517
:100E6000C1F30A5201F000450024C1F3130140F21E
:100E7000FF3341F480119A4201DA002070BD40F244
:100E800033439A42A2F2334203DC524200F019F893
:100E900000E090402C43F1D0404270BD00F0004291
:100EA00030F000400AD0C10D01F56071C0F31600AA
:100EB00042EA0151C2084007114370470020014631
:100EC0007047202A04DB203A21FA02F00021704703
:100ED00021FA02F3D040C2F12002914008431946A2
:100EE00070470029A8BF7047401C490008BF20F088
:100EF0000100704710B4B0FA80FC00FA0CF050EA20
:100F0000010404BF10BC704749B1CCF1200421FAA0
:100F100004F411FA0CF118BF012121430843A3EB9B
:100F20000C01CB1D4FEA00614FEA102042BF0020A8
:100F300010BC704700EBC35010440029A4BF10BC84
:100F40007047401C490008BF20F0010010BC7047EA
:100F500010B5141E73F1000408DA401C41F10001C1
:100F600092185B411A4301D120F0010010BD2DE918
:100F7000F04D92469B4611B1B1FA81F202E0B0FA0F
:100F800080F22032904600F053F804460F4640EAC3
:100F90000A0041EA0B0153465A46084313D0114652
:100FA00053EA010019D0C8F140025046FFF789FF0B
:100FB00005460E4650465946424600F039F8084369
:100FC00005D0012004E020463946BDE8F08D002020
:100FD000054346EAE0762C4337430A986305E40A62
:100FE000A0EB08000022FD0A44EA47540A3002D56B
:100FF00000200146E9E7010510196941DDE90845CE
:1010000000196941BDE8F04DA2E70000064C074D0C
:1010100006E0E06840F0010394E8070098471034C8
:10102000AC42F6D3FFF766F86C1000088C1000088D
:10103000202A04DB203A00FA02F100207047914098
:10104000C2F1200320FA03F319439040704702E0F5
:1010500008C8121F08C1002AFAD170477047002043
:1010600001E001C1121F002AFBD170478C1000085B
:1010700000000020300000004E100008BC100008E6
:1010800030000020D80200005E10000800000000C0
:101090000000000000000000014201000200030007
:1010A0000400050006000700080009000A000B0004
:0C10B0000C000D000E000F0010000000EE
:04000005080000ED02
:00000001FF
